{"contracts/FarmingProjects.sol":{"FarmingProjects":{"abi":[{"anonymous":false,"inputs":[{"indexed":true,"internalType":"uint256","name":"projectId","type":"uint256"},{"indexed":true,"internalType":"address","name":"owner","type":"address"},{"indexed":false,"internalType":"uint256","name":"amount","type":"uint256"}],"name":"FundsWithdrawn","type":"event"},{"anonymous":false,"inputs":[{"indexed":true,"internalType":"uint256","name":"projectId","type":"uint256"},{"indexed":true,"internalType":"address","name":"investor","type":"address"},{"indexed":false,"internalType":"uint256","name":"amount","type":"uint256"}],"name":"InvestmentMade","type":"event"},{"anonymous":false,"inputs":[{"indexed":true,"internalType":"uint256","name":"projectId","type":"uint256"},{"indexed":true,"internalType":"address","name":"owner","type":"address"},{"indexed":false,"internalType":"string","name":"title","type":"string"},{"indexed":false,"internalType":"uint256","name":"targetAmount","type":"uint256"}],"name":"ProjectCreated","type":"event"},{"anonymous":false,"inputs":[{"indexed":true,"internalType":"uint256","name":"projectId","type":"uint256"}],"name":"ProjectDeleted","type":"event"},{"inputs":[{"internalType":"string","name":"_title","type":"string"},{"internalType":"string","name":"_description","type":"string"},{"internalType":"string","name":"_location","type":"string"},{"internalType":"string","name":"_imageUrl","type":"string"},{"internalType":"uint256","name":"_targetAmount","type":"uint256"}],"name":"createProject","outputs":[{"internalType":"uint256","name":"","type":"uint256"}],"stateMutability":"nonpayable","type":"function"},{"inputs":[{"internalType":"uint256","name":"_projectId","type":"uint256"}],"name":"deleteProject","outputs":[],"stateMutability":"nonpayable","type":"function"},{"inputs":[{"internalType":"uint256","name":"_projectId","type":"uint256"},{"internalType":"address","name":"_investor","type":"address"}],"name":"getInvestmentAmount","outputs":[{"internalType":"uint256","name":"","type":"uint256"}],"stateMutability":"view","type":"function"},{"inputs":[],"name":"getProjectCounter","outputs":[{"internalType":"uint256","name":"counter","type":"uint256"}],"stateMutability":"view","type":"function"},{"inputs":[{"internalType":"uint256","name":"_projectId","type":"uint256"}],"name":"getProjectDetails","outputs":[{"internalType":"address","name":"owner","type":"address"},{"internalType":"string","name":"title","type":"string"},{"internalType":"string","name":"description","type":"string"},{"internalType":"string","name":"location","type":"string"},{"internalType":"string","name":"imageUrl","type":"string"},{"internalType":"uint256","name":"targetAmount","type":"uint256"},{"internalType":"uint256","name":"currentAmount","type":"uint256"},{"internalType":"bool","name":"isActive","type":"bool"}],"stateMutability":"view","type":"function"},{"inputs":[{"internalType":"uint256","name":"_projectId","type":"uint256"}],"name":"investInProject","outputs":[],"stateMutability":"payable","type":"function"},{"inputs":[],"name":"projectCounter","outputs":[{"internalType":"uint256","name":"","type":"uint256"}],"stateMutability":"view","type":"function"},{"inputs":[{"internalType":"uint256","name":"","type":"uint256"}],"name":"projects","outputs":[{"internalType":"uint256","name":"id","type":"uint256"},{"internalType":"address","name":"owner","type":"address"},{"internalType":"string","name":"title","type":"string"},{"internalType":"string","name":"description","type":"string"},{"internalType":"string","name":"location","type":"string"},{"internalType":"string","name":"imageUrl","type":"string"},{"internalType":"uint256","name":"targetAmount","type":"uint256"},{"internalType":"uint256","name":"currentAmount","type":"uint256"},{"internalType":"bool","name":"isActive","type":"bool"}],"stateMutability":"view","type":"function"},{"inputs":[{"internalType":"uint256","name":"_projectId","type":"uint256"}],"name":"withdrawFunds","outputs":[],"stateMutability":"nonpayable","type":"function"}],"evm":{"bytecode":{"linkReferences":{},"object":"608060405234801561001057600080fd5b50611fbc806100206000396000f3fe6080604052600436106100865760003560e01c80635b562fd8116100595780635b562fd81461014d5780635f8439e314610169578063a78c389a146101ad578063bb7e385a146101ea578063f8a518ed1461022757610086565b80630c527d9d1461008b578063107046bd146100b6578063155dd5ee146100fb5780634cd0cb2814610124575b600080fd5b34801561009757600080fd5b506100a0610252565b6040516100ad919061109c565b60405180910390f35b3480156100c257600080fd5b506100dd60048036038101906100d891906110f7565b61025b565b6040516100f299989796959493929190611210565b60405180910390f35b34801561010757600080fd5b50610122600480360381019061011d91906110f7565b6104f6565b005b34801561013057600080fd5b5061014b600480360381019061014691906110f7565b61072b565b005b610167600480360381019061016291906110f7565b61093b565b005b34801561017557600080fd5b50610190600480360381019061018b91906110f7565b610b80565b6040516101a49897969594939291906112b9565b60405180910390f35b3480156101b957600080fd5b506101d460048036038101906101cf9190611488565b610e40565b6040516101e1919061109c565b60405180910390f35b3480156101f657600080fd5b50610211600480360381019061020c919061159f565b61101f565b60405161021e919061109c565b60405180910390f35b34801561023357600080fd5b5061023c61107d565b604051610249919061109c565b60405180910390f35b60008054905090565b60016020528060005260406000206000915090508060000154908060010160009054906101000a900473ffffffffffffffffffffffffffffffffffffffff16908060020180546102aa9061160e565b80601f01602080910402602001604051908101604052809291908181526020018280546102d69061160e565b80156103235780601f106102f857610100808354040283529160200191610323565b820191906000526020600020905b81548152906001019060200180831161030657829003601f168201915b5050505050908060030180546103389061160e565b80601f01602080910402602001604051908101604052809291908181526020018280546103649061160e565b80156103b15780601f10610386576101008083540402835291602001916103b1565b820191906000526020600020905b81548152906001019060200180831161039457829003601f168201915b5050505050908060040180546103c69061160e565b80601f01602080910402602001604051908101604052809291908181526020018280546103f29061160e565b801561043f5780601f106104145761010080835404028352916020019161043f565b820191906000526020600020905b81548152906001019060200180831161042257829003601f168201915b5050505050908060050180546104549061160e565b80601f01602080910402602001604051908101604052809291908181526020018280546104809061160e565b80156104cd5780601f106104a2576101008083540402835291602001916104cd565b820191906000526020600020905b8154815290600101906020018083116104b057829003601f168201915b5050505050908060060154908060070154908060080160009054906101000a900460ff16905089565b803373ffffffffffffffffffffffffffffffffffffffff166001600083815260200190815260200160002060010160009054906101000a900473ffffffffffffffffffffffffffffffffffffffff1673ffffffffffffffffffffffffffffffffffffffff161461059b576040517f08c379a00000000000000000000000000000000000000000000000000000000081526004016105929061168b565b60405180910390fd5b600060016000848152602001908152602001600020905060008160070154116105f9576040517f08c379a00000000000000000000000000000000000000000000000000000000081526004016105f0906116f7565b60405180910390fd5b6000816007015490506000826007018190555060008260080160006101000a81548160ff02191690831515021790555060003373ffffffffffffffffffffffffffffffffffffffff168260405161064f90611748565b60006040518083038185875af1925050503d806000811461068c576040519150601f19603f3d011682016040523d82523d6000602084013e610691565b606091505b50509050806106d5576040517f08c379a00000000000000000000000000000000000000000000000000000000081526004016106cc906117a9565b60405180910390fd5b3373ffffffffffffffffffffffffffffffffffffffff16857ff440aec6b52895984d061d622e6edeba6210f7c3e059be920663140c084560d78460405161071c919061109c565b60405180910390a35050505050565b60008111801561073d57506000548111155b61077c576040517f08c379a000000000000000000000000000000000000000000000000000000000815260040161077390611815565b60405180910390fd5b3373ffffffffffffffffffffffffffffffffffffffff166001600083815260200190815260200160002060010160009054906101000a900473ffffffffffffffffffffffffffffffffffffffff1673ffffffffffffffffffffffffffffffffffffffff1614610820576040517f08c379a000000000000000000000000000000000000000000000000000000000815260040161081790611881565b60405180910390fd5b6001600082815260200190815260200160002060080160009054906101000a900460ff16610883576040517f08c379a000000000000000000000000000000000000000000000000000000000815260040161087a906118ed565b60405180910390fd5b60006001600083815260200190815260200160002060070154146108dc576040517f08c379a00000000000000000000000000000000000000000000000000000000081526004016108d39061197f565b60405180910390fd5b60006001600083815260200190815260200160002060080160006101000a81548160ff021916908315150217905550807f8c2a9a6341bba6c545de035fe1175518191d1ec50716506635b641372af17c5f60405160405180910390a250565b60008111801561094d57506000548111155b61098c576040517f08c379a000000000000000000000000000000000000000000000000000000000815260040161098390611815565b60405180910390fd5b60006001600083815260200190815260200160002090508060080160009054906101000a900460ff166109f4576040517f08c379a00000000000000000000000000000000000000000000000000000000081526004016109eb906119eb565b60405180910390fd5b60003411610a37576040517f08c379a0000000000000000000000000000000000000000000000000000000008152600401610a2e90611a7d565b60405180910390fd5b8060060154348260070154610a4c9190611acc565b1115610a8d576040517f08c379a0000000000000000000000000000000000000000000000000000000008152600401610a8490611b72565b60405180910390fd5b348160090160003373ffffffffffffffffffffffffffffffffffffffff1673ffffffffffffffffffffffffffffffffffffffff1681526020019081526020016000206000828254610ade9190611acc565b9250508190555034816007016000828254610af99190611acc565b925050819055508060060154816007015403610b2d5760008160080160006101000a81548160ff0219169083151502179055505b3373ffffffffffffffffffffffffffffffffffffffff16827f89728d542d77fad9fe42c7d1f032c2b85f64cf938d754183b0e95359fbfac8a134604051610b74919061109c565b60405180910390a35050565b6000606080606080600080600080600160008b815260200190815260200160002090508060010160009054906101000a900473ffffffffffffffffffffffffffffffffffffffff1681600201826003018360040184600501856006015486600701548760080160009054906101000a900460ff16868054610c009061160e565b80601f0160208091040260200160405190810160405280929190818152602001828054610c2c9061160e565b8015610c795780601f10610c4e57610100808354040283529160200191610c79565b820191906000526020600020905b815481529060010190602001808311610c5c57829003601f168201915b50505050509650858054610c8c9061160e565b80601f0160208091040260200160405190810160405280929190818152602001828054610cb89061160e565b8015610d055780601f10610cda57610100808354040283529160200191610d05565b820191906000526020600020905b815481529060010190602001808311610ce857829003601f168201915b50505050509550848054610d189061160e565b80601f0160208091040260200160405190810160405280929190818152602001828054610d449061160e565b8015610d915780601f10610d6657610100808354040283529160200191610d91565b820191906000526020600020905b815481529060010190602001808311610d7457829003601f168201915b50505050509450838054610da49061160e565b80601f0160208091040260200160405190810160405280929190818152602001828054610dd09061160e565b8015610e1d5780601f10610df257610100808354040283529160200191610e1d565b820191906000526020600020905b815481529060010190602001808311610e0057829003601f168201915b505050505093509850985098509850985098509850985050919395975091939597565b600080865111610e85576040517f08c379a0000000000000000000000000000000000000000000000000000000008152600401610e7c90611bde565b60405180910390fd5b60008211610ec8576040517f08c379a0000000000000000000000000000000000000000000000000000000008152600401610ebf90611c70565b60405180910390fd5b600080815480929190610eda90611c90565b91905055506000600160008054815260200190815260200160002090506000548160000181905550338160010160006101000a81548173ffffffffffffffffffffffffffffffffffffffff021916908373ffffffffffffffffffffffffffffffffffffffff16021790555086816002019081610f569190611e84565b5085816003019081610f689190611e84565b5084816004019081610f7a9190611e84565b5083816005019081610f8c9190611e84565b508281600601819055506000816007018190555060018160080160006101000a81548160ff0219169083151502179055503373ffffffffffffffffffffffffffffffffffffffff166000547f51d08cb6cfa640a387210fb69df925dfb70169ae7373f8ecd40b977b0c800d9a8986604051611008929190611f56565b60405180910390a360005491505095945050505050565b60006001600084815260200190815260200160002060090160008373ffffffffffffffffffffffffffffffffffffffff1673ffffffffffffffffffffffffffffffffffffffff16815260200190815260200160002054905092915050565b60005481565b6000819050919050565b61109681611083565b82525050565b60006020820190506110b1600083018461108d565b92915050565b6000604051905090565b600080fd5b600080fd5b6110d481611083565b81146110df57600080fd5b50565b6000813590506110f1816110cb565b92915050565b60006020828403121561110d5761110c6110c1565b5b600061111b848285016110e2565b91505092915050565b600073ffffffffffffffffffffffffffffffffffffffff82169050919050565b600061114f82611124565b9050919050565b61115f81611144565b82525050565b600081519050919050565b600082825260208201905092915050565b60005b8381101561119f578082015181840152602081019050611184565b60008484015250505050565b6000601f19601f8301169050919050565b60006111c782611165565b6111d18185611170565b93506111e1818560208601611181565b6111ea816111ab565b840191505092915050565b60008115159050919050565b61120a816111f5565b82525050565b600061012082019050611226600083018c61108d565b611233602083018b611156565b8181036040830152611245818a6111bc565b9050818103606083015261125981896111bc565b9050818103608083015261126d81886111bc565b905081810360a083015261128181876111bc565b905061129060c083018661108d565b61129d60e083018561108d565b6112ab610100830184611201565b9a9950505050505050505050565b6000610100820190506112cf600083018b611156565b81810360208301526112e1818a6111bc565b905081810360408301526112f581896111bc565b9050818103606083015261130981886111bc565b9050818103608083015261131d81876111bc565b905061132c60a083018661108d565b61133960c083018561108d565b61134660e0830184611201565b9998505050505050505050565b600080fd5b600080fd5b7f4e487b7100000000000000000000000000000000000000000000000000000000600052604160045260246000fd5b611395826111ab565b810181811067ffffffffffffffff821117156113b4576113b361135d565b5b80604052505050565b60006113c76110b7565b90506113d3828261138c565b919050565b600067ffffffffffffffff8211156113f3576113f261135d565b5b6113fc826111ab565b9050602081019050919050565b82818337600083830152505050565b600061142b611426846113d8565b6113bd565b90508281526020810184848401111561144757611446611358565b5b611452848285611409565b509392505050565b600082601f83011261146f5761146e611353565b5b813561147f848260208601611418565b91505092915050565b600080600080600060a086880312156114a4576114a36110c1565b5b600086013567ffffffffffffffff8111156114c2576114c16110c6565b5b6114ce8882890161145a565b955050602086013567ffffffffffffffff8111156114ef576114ee6110c6565b5b6114fb8882890161145a565b945050604086013567ffffffffffffffff81111561151c5761151b6110c6565b5b6115288882890161145a565b935050606086013567ffffffffffffffff811115611549576115486110c6565b5b6115558882890161145a565b9250506080611566888289016110e2565b9150509295509295909350565b61157c81611144565b811461158757600080fd5b50565b60008135905061159981611573565b92915050565b600080604083850312156115b6576115b56110c1565b5b60006115c4858286016110e2565b92505060206115d58582860161158a565b9150509250929050565b7f4e487b7100000000000000000000000000000000000000000000000000000000600052602260045260246000fd5b6000600282049050600182168061162657607f821691505b602082108103611639576116386115df565b5b50919050565b7f4e6f74207468652070726f6a656374206f776e65720000000000000000000000600082015250565b6000611675601583611170565b91506116808261163f565b602082019050919050565b600060208201905081810360008301526116a481611668565b9050919050565b7f4e6f2066756e647320746f207769746864726177000000000000000000000000600082015250565b60006116e1601483611170565b91506116ec826116ab565b602082019050919050565b60006020820190508181036000830152611710816116d4565b9050919050565b600081905092915050565b50565b6000611732600083611717565b915061173d82611722565b600082019050919050565b600061175382611725565b9150819050919050565b7f5472616e73666572206661696c65640000000000000000000000000000000000600082015250565b6000611793600f83611170565b915061179e8261175d565b602082019050919050565b600060208201905081810360008301526117c281611786565b9050919050565b7f496e76616c69642070726f6a6563742049440000000000000000000000000000600082015250565b60006117ff601283611170565b915061180a826117c9565b602082019050919050565b6000602082019050818103600083015261182e816117f2565b9050919050565b7f4f6e6c79206f776e65722063616e2064656c6574652070726f6a656374000000600082015250565b600061186b601d83611170565b915061187682611835565b602082019050919050565b6000602082019050818103600083015261189a8161185e565b9050919050565b7f50726f6a65637420697320616c726561647920696e6163746976650000000000600082015250565b60006118d7601b83611170565b91506118e2826118a1565b602082019050919050565b60006020820190508181036000830152611906816118ca565b9050919050565b7f43616e6e6f742064656c6574652070726f6a656374207769746820696e76657360008201527f746d656e74730000000000000000000000000000000000000000000000000000602082015250565b6000611969602683611170565b91506119748261190d565b604082019050919050565b600060208201905081810360008301526119988161195c565b9050919050565b7f50726f6a656374206973206e6f74206163746976650000000000000000000000600082015250565b60006119d5601583611170565b91506119e08261199f565b602082019050919050565b60006020820190508181036000830152611a04816119c8565b9050919050565b7f496e766573746d656e7420616d6f756e74206d7573742062652067726561746560008201527f72207468616e2030000000000000000000000000000000000000000000000000602082015250565b6000611a67602883611170565b9150611a7282611a0b565b604082019050919050565b60006020820190508181036000830152611a9681611a5a565b9050919050565b7f4e487b7100000000000000000000000000000000000000000000000000000000600052601160045260246000fd5b6000611ad782611083565b9150611ae283611083565b9250828201905080821115611afa57611af9611a9d565b5b92915050565b7f496e766573746d656e7420776f756c642065786365656420746172676574206160008201527f6d6f756e74000000000000000000000000000000000000000000000000000000602082015250565b6000611b5c602583611170565b9150611b6782611b00565b604082019050919050565b60006020820190508181036000830152611b8b81611b4f565b9050919050565b7f5469746c652063616e6e6f7420626520656d7074790000000000000000000000600082015250565b6000611bc8601583611170565b9150611bd382611b92565b602082019050919050565b60006020820190508181036000830152611bf781611bbb565b9050919050565b7f54617267657420616d6f756e74206d757374206265206772656174657220746860008201527f616e203000000000000000000000000000000000000000000000000000000000602082015250565b6000611c5a602483611170565b9150611c6582611bfe565b604082019050919050565b60006020820190508181036000830152611c8981611c4d565b9050919050565b6000611c9b82611083565b91507fffffffffffffffffffffffffffffffffffffffffffffffffffffffffffffffff8203611ccd57611ccc611a9d565b5b600182019050919050565b60008190508160005260206000209050919050565b60006020601f8301049050919050565b600082821b905092915050565b600060088302611d3a7fffffffffffffffffffffffffffffffffffffffffffffffffffffffffffffffff82611cfd565b611d448683611cfd565b95508019841693508086168417925050509392505050565b6000819050919050565b6000611d81611d7c611d7784611083565b611d5c565b611083565b9050919050565b6000819050919050565b611d9b83611d66565b611daf611da782611d88565b848454611d0a565b825550505050565b600090565b611dc4611db7565b611dcf818484611d92565b505050565b5b81811015611df357611de8600082611dbc565b600181019050611dd5565b5050565b601f821115611e3857611e0981611cd8565b611e1284611ced565b81016020851015611e21578190505b611e35611e2d85611ced565b830182611dd4565b50505b505050565b600082821c905092915050565b6000611e5b60001984600802611e3d565b1980831691505092915050565b6000611e748383611e4a565b9150826002028217905092915050565b611e8d82611165565b67ffffffffffffffff811115611ea657611ea561135d565b5b611eb0825461160e565b611ebb828285611df7565b600060209050601f831160018114611eee5760008415611edc578287015190505b611ee68582611e68565b865550611f4e565b601f198416611efc86611cd8565b60005b82811015611f2457848901518255600182019150602085019450602081019050611eff565b86831015611f415784890151611f3d601f891682611e4a565b8355505b6001600288020188555050505b505050505050565b60006040820190508181036000830152611f7081856111bc565b9050611f7f602083018461108d565b939250505056fea264697066735822122043290302aee7499ebb4d8c512a8f5db1ec5f5b158489098c3e57fd1da227a64964736f6c63430008130033","opcodes":"PUSH1 0x80 PUSH1 0x40 MSTORE CALLVALUE DUP1 ISZERO PUSH2 0x10 JUMPI PUSH1 0x0 DUP1 REVERT JUMPDEST POP PUSH2 0x1FBC DUP1 PUSH2 0x20 PUSH1 0x0 CODECOPY PUSH1 0x0 RETURN INVALID PUSH1 0x80 PUSH1 0x40 MSTORE PUSH1 0x4 CALLDATASIZE LT PUSH2 0x86 JUMPI PUSH1 0x0 CALLDATALOAD PUSH1 0xE0 SHR DUP1 PUSH4 0x5B562FD8 GT PUSH2 0x59 JUMPI DUP1 PUSH4 0x5B562FD8 EQ PUSH2 0x14D JUMPI DUP1 PUSH4 0x5F8439E3 EQ PUSH2 0x169 JUMPI DUP1 PUSH4 0xA78C389A EQ PUSH2 0x1AD JUMPI DUP1 PUSH4 0xBB7E385A EQ PUSH2 0x1EA JUMPI DUP1 PUSH4 0xF8A518ED EQ PUSH2 0x227 JUMPI PUSH2 0x86 JUMP JUMPDEST DUP1 PUSH4 0xC527D9D EQ PUSH2 0x8B JUMPI DUP1 PUSH4 0x107046BD EQ PUSH2 0xB6 JUMPI DUP1 PUSH4 0x155DD5EE EQ PUSH2 0xFB JUMPI DUP1 PUSH4 0x4CD0CB28 EQ PUSH2 0x124 JUMPI JUMPDEST PUSH1 0x0 DUP1 REVERT JUMPDEST CALLVALUE DUP1 ISZERO PUSH2 0x97 JUMPI PUSH1 0x0 DUP1 REVERT JUMPDEST POP PUSH2 0xA0 PUSH2 0x252 JUMP JUMPDEST PUSH1 0x40 MLOAD PUSH2 0xAD SWAP2 SWAP1 PUSH2 0x109C JUMP JUMPDEST PUSH1 0x40 MLOAD DUP1 SWAP2 SUB SWAP1 RETURN JUMPDEST CALLVALUE DUP1 ISZERO PUSH2 0xC2 JUMPI PUSH1 0x0 DUP1 REVERT JUMPDEST POP PUSH2 0xDD PUSH1 0x4 DUP1 CALLDATASIZE SUB DUP2 ADD SWAP1 PUSH2 0xD8 SWAP2 SWAP1 PUSH2 0x10F7 JUMP JUMPDEST PUSH2 0x25B JUMP JUMPDEST PUSH1 0x40 MLOAD PUSH2 0xF2 SWAP10 SWAP9 SWAP8 SWAP7 SWAP6 SWAP5 SWAP4 SWAP3 SWAP2 SWAP1 PUSH2 0x1210 JUMP JUMPDEST PUSH1 0x40 MLOAD DUP1 SWAP2 SUB SWAP1 RETURN JUMPDEST CALLVALUE DUP1 ISZERO PUSH2 0x107 JUMPI PUSH1 0x0 DUP1 REVERT JUMPDEST POP PUSH2 0x122 PUSH1 0x4 DUP1 CALLDATASIZE SUB DUP2 ADD SWAP1 PUSH2 0x11D SWAP2 SWAP1 PUSH2 0x10F7 JUMP JUMPDEST PUSH2 0x4F6 JUMP JUMPDEST STOP JUMPDEST CALLVALUE DUP1 ISZERO PUSH2 0x130 JUMPI PUSH1 0x0 DUP1 REVERT JUMPDEST POP PUSH2 0x14B PUSH1 0x4 DUP1 CALLDATASIZE SUB DUP2 ADD SWAP1 PUSH2 0x146 SWAP2 SWAP1 PUSH2 0x10F7 JUMP JUMPDEST PUSH2 0x72B JUMP JUMPDEST STOP JUMPDEST PUSH2 0x167 PUSH1 0x4 DUP1 CALLDATASIZE SUB DUP2 ADD SWAP1 PUSH2 0x162 SWAP2 SWAP1 PUSH2 0x10F7 JUMP JUMPDEST PUSH2 0x93B JUMP JUMPDEST STOP JUMPDEST CALLVALUE DUP1 ISZERO PUSH2 0x175 JUMPI PUSH1 0x0 DUP1 REVERT JUMPDEST POP PUSH2 0x190 PUSH1 0x4 DUP1 CALLDATASIZE SUB DUP2 ADD SWAP1 PUSH2 0x18B SWAP2 SWAP1 PUSH2 0x10F7 JUMP JUMPDEST PUSH2 0xB80 JUMP JUMPDEST PUSH1 0x40 MLOAD PUSH2 0x1A4 SWAP9 SWAP8 SWAP7 SWAP6 SWAP5 SWAP4 SWAP3 SWAP2 SWAP1 PUSH2 0x12B9 JUMP JUMPDEST PUSH1 0x40 MLOAD DUP1 SWAP2 SUB SWAP1 RETURN JUMPDEST CALLVALUE DUP1 ISZERO PUSH2 0x1B9 JUMPI PUSH1 0x0 DUP1 REVERT JUMPDEST POP PUSH2 0x1D4 PUSH1 0x4 DUP1 CALLDATASIZE SUB DUP2 ADD SWAP1 PUSH2 0x1CF SWAP2 SWAP1 PUSH2 0x1488 JUMP JUMPDEST PUSH2 0xE40 JUMP JUMPDEST PUSH1 0x40 MLOAD PUSH2 0x1E1 SWAP2 SWAP1 PUSH2 0x109C JUMP JUMPDEST PUSH1 0x40 MLOAD DUP1 SWAP2 SUB SWAP1 RETURN JUMPDEST CALLVALUE DUP1 ISZERO PUSH2 0x1F6 JUMPI PUSH1 0x0 DUP1 REVERT JUMPDEST POP PUSH2 0x211 PUSH1 0x4 DUP1 CALLDATASIZE SUB DUP2 ADD SWAP1 PUSH2 0x20C SWAP2 SWAP1 PUSH2 0x159F JUMP JUMPDEST PUSH2 0x101F JUMP JUMPDEST PUSH1 0x40 MLOAD PUSH2 0x21E SWAP2 SWAP1 PUSH2 0x109C JUMP JUMPDEST PUSH1 0x40 MLOAD DUP1 SWAP2 SUB SWAP1 RETURN JUMPDEST CALLVALUE DUP1 ISZERO PUSH2 0x233 JUMPI PUSH1 0x0 DUP1 REVERT JUMPDEST POP PUSH2 0x23C PUSH2 0x107D JUMP JUMPDEST PUSH1 0x40 MLOAD PUSH2 0x249 SWAP2 SWAP1 PUSH2 0x109C JUMP JUMPDEST PUSH1 0x40 MLOAD DUP1 SWAP2 SUB SWAP1 RETURN JUMPDEST PUSH1 0x0 DUP1 SLOAD SWAP1 POP SWAP1 JUMP JUMPDEST PUSH1 0x1 PUSH1 0x20 MSTORE DUP1 PUSH1 0x0 MSTORE PUSH1 0x40 PUSH1 0x0 KECCAK256 PUSH1 0x0 SWAP2 POP SWAP1 POP DUP1 PUSH1 0x0 ADD SLOAD SWAP1 DUP1 PUSH1 0x1 ADD PUSH1 0x0 SWAP1 SLOAD SWAP1 PUSH2 0x100 EXP SWAP1 DIV PUSH20 0xFFFFFFFFFFFFFFFFFFFFFFFFFFFFFFFFFFFFFFFF AND SWAP1 DUP1 PUSH1 0x2 ADD DUP1 SLOAD PUSH2 0x2AA SWAP1 PUSH2 0x160E JUMP JUMPDEST DUP1 PUSH1 0x1F ADD PUSH1 0x20 DUP1 SWAP2 DIV MUL PUSH1 0x20 ADD PUSH1 0x40 MLOAD SWAP1 DUP2 ADD PUSH1 0x40 MSTORE DUP1 SWAP3 SWAP2 SWAP1 DUP2 DUP2 MSTORE PUSH1 0x20 ADD DUP3 DUP1 SLOAD PUSH2 0x2D6 SWAP1 PUSH2 0x160E JUMP JUMPDEST DUP1 ISZERO PUSH2 0x323 JUMPI DUP1 PUSH1 0x1F LT PUSH2 0x2F8 JUMPI PUSH2 0x100 DUP1 DUP4 SLOAD DIV MUL DUP4 MSTORE SWAP2 PUSH1 0x20 ADD SWAP2 PUSH2 0x323 JUMP JUMPDEST DUP3 ADD SWAP2 SWAP1 PUSH1 0x0 MSTORE PUSH1 0x20 PUSH1 0x0 KECCAK256 SWAP1 JUMPDEST DUP2 SLOAD DUP2 MSTORE SWAP1 PUSH1 0x1 ADD SWAP1 PUSH1 0x20 ADD DUP1 DUP4 GT PUSH2 0x306 JUMPI DUP3 SWAP1 SUB PUSH1 0x1F AND DUP3 ADD SWAP2 JUMPDEST POP POP POP POP POP SWAP1 DUP1 PUSH1 0x3 ADD DUP1 SLOAD PUSH2 0x338 SWAP1 PUSH2 0x160E JUMP JUMPDEST DUP1 PUSH1 0x1F ADD PUSH1 0x20 DUP1 SWAP2 DIV MUL PUSH1 0x20 ADD PUSH1 0x40 MLOAD SWAP1 DUP2 ADD PUSH1 0x40 MSTORE DUP1 SWAP3 SWAP2 SWAP1 DUP2 DUP2 MSTORE PUSH1 0x20 ADD DUP3 DUP1 SLOAD PUSH2 0x364 SWAP1 PUSH2 0x160E JUMP JUMPDEST DUP1 ISZERO PUSH2 0x3B1 JUMPI DUP1 PUSH1 0x1F LT PUSH2 0x386 JUMPI PUSH2 0x100 DUP1 DUP4 SLOAD DIV MUL DUP4 MSTORE SWAP2 PUSH1 0x20 ADD SWAP2 PUSH2 0x3B1 JUMP JUMPDEST DUP3 ADD SWAP2 SWAP1 PUSH1 0x0 MSTORE PUSH1 0x20 PUSH1 0x0 KECCAK256 SWAP1 JUMPDEST DUP2 SLOAD DUP2 MSTORE SWAP1 PUSH1 0x1 ADD SWAP1 PUSH1 0x20 ADD DUP1 DUP4 GT PUSH2 0x394 JUMPI DUP3 SWAP1 SUB PUSH1 0x1F AND DUP3 ADD SWAP2 JUMPDEST POP POP POP POP POP SWAP1 DUP1 PUSH1 0x4 ADD DUP1 SLOAD PUSH2 0x3C6 SWAP1 PUSH2 0x160E JUMP JUMPDEST DUP1 PUSH1 0x1F ADD PUSH1 0x20 DUP1 SWAP2 DIV MUL PUSH1 0x20 ADD PUSH1 0x40 MLOAD SWAP1 DUP2 ADD PUSH1 0x40 MSTORE DUP1 SWAP3 SWAP2 SWAP1 DUP2 DUP2 MSTORE PUSH1 0x20 ADD DUP3 DUP1 SLOAD PUSH2 0x3F2 SWAP1 PUSH2 0x160E JUMP JUMPDEST DUP1 ISZERO PUSH2 0x43F JUMPI DUP1 PUSH1 0x1F LT PUSH2 0x414 JUMPI PUSH2 0x100 DUP1 DUP4 SLOAD DIV MUL DUP4 MSTORE SWAP2 PUSH1 0x20 ADD SWAP2 PUSH2 0x43F JUMP JUMPDEST DUP3 ADD SWAP2 SWAP1 PUSH1 0x0 MSTORE PUSH1 0x20 PUSH1 0x0 KECCAK256 SWAP1 JUMPDEST DUP2 SLOAD DUP2 MSTORE SWAP1 PUSH1 0x1 ADD SWAP1 PUSH1 0x20 ADD DUP1 DUP4 GT PUSH2 0x422 JUMPI DUP3 SWAP1 SUB PUSH1 0x1F AND DUP3 ADD SWAP2 JUMPDEST POP POP POP POP POP SWAP1 DUP1 PUSH1 0x5 ADD DUP1 SLOAD PUSH2 0x454 SWAP1 PUSH2 0x160E JUMP JUMPDEST DUP1 PUSH1 0x1F ADD PUSH1 0x20 DUP1 SWAP2 DIV MUL PUSH1 0x20 ADD PUSH1 0x40 MLOAD SWAP1 DUP2 ADD PUSH1 0x40 MSTORE DUP1 SWAP3 SWAP2 SWAP1 DUP2 DUP2 MSTORE PUSH1 0x20 ADD DUP3 DUP1 SLOAD PUSH2 0x480 SWAP1 PUSH2 0x160E JUMP JUMPDEST DUP1 ISZERO PUSH2 0x4CD JUMPI DUP1 PUSH1 0x1F LT PUSH2 0x4A2 JUMPI PUSH2 0x100 DUP1 DUP4 SLOAD DIV MUL DUP4 MSTORE SWAP2 PUSH1 0x20 ADD SWAP2 PUSH2 0x4CD JUMP JUMPDEST DUP3 ADD SWAP2 SWAP1 PUSH1 0x0 MSTORE PUSH1 0x20 PUSH1 0x0 KECCAK256 SWAP1 JUMPDEST DUP2 SLOAD DUP2 MSTORE SWAP1 PUSH1 0x1 ADD SWAP1 PUSH1 0x20 ADD DUP1 DUP4 GT PUSH2 0x4B0 JUMPI DUP3 SWAP1 SUB PUSH1 0x1F AND DUP3 ADD SWAP2 JUMPDEST POP POP POP POP POP SWAP1 DUP1 PUSH1 0x6 ADD SLOAD SWAP1 DUP1 PUSH1 0x7 ADD SLOAD SWAP1 DUP1 PUSH1 0x8 ADD PUSH1 0x0 SWAP1 SLOAD SWAP1 PUSH2 0x100 EXP SWAP1 DIV PUSH1 0xFF AND SWAP1 POP DUP10 JUMP JUMPDEST DUP1 CALLER PUSH20 0xFFFFFFFFFFFFFFFFFFFFFFFFFFFFFFFFFFFFFFFF AND PUSH1 0x1 PUSH1 0x0 DUP4 DUP2 MSTORE PUSH1 0x20 ADD SWAP1 DUP2 MSTORE PUSH1 0x20 ADD PUSH1 0x0 KECCAK256 PUSH1 0x1 ADD PUSH1 0x0 SWAP1 SLOAD SWAP1 PUSH2 0x100 EXP SWAP1 DIV PUSH20 0xFFFFFFFFFFFFFFFFFFFFFFFFFFFFFFFFFFFFFFFF AND PUSH20 0xFFFFFFFFFFFFFFFFFFFFFFFFFFFFFFFFFFFFFFFF AND EQ PUSH2 0x59B JUMPI PUSH1 0x40 MLOAD PUSH32 0x8C379A000000000000000000000000000000000000000000000000000000000 DUP2 MSTORE PUSH1 0x4 ADD PUSH2 0x592 SWAP1 PUSH2 0x168B JUMP JUMPDEST PUSH1 0x40 MLOAD DUP1 SWAP2 SUB SWAP1 REVERT JUMPDEST PUSH1 0x0 PUSH1 0x1 PUSH1 0x0 DUP5 DUP2 MSTORE PUSH1 0x20 ADD SWAP1 DUP2 MSTORE PUSH1 0x20 ADD PUSH1 0x0 KECCAK256 SWAP1 POP PUSH1 0x0 DUP2 PUSH1 0x7 ADD SLOAD GT PUSH2 0x5F9 JUMPI PUSH1 0x40 MLOAD PUSH32 0x8C379A000000000000000000000000000000000000000000000000000000000 DUP2 MSTORE PUSH1 0x4 ADD PUSH2 0x5F0 SWAP1 PUSH2 0x16F7 JUMP JUMPDEST PUSH1 0x40 MLOAD DUP1 SWAP2 SUB SWAP1 REVERT JUMPDEST PUSH1 0x0 DUP2 PUSH1 0x7 ADD SLOAD SWAP1 POP PUSH1 0x0 DUP3 PUSH1 0x7 ADD DUP2 SWAP1 SSTORE POP PUSH1 0x0 DUP3 PUSH1 0x8 ADD PUSH1 0x0 PUSH2 0x100 EXP DUP2 SLOAD DUP2 PUSH1 0xFF MUL NOT AND SWAP1 DUP4 ISZERO ISZERO MUL OR SWAP1 SSTORE POP PUSH1 0x0 CALLER PUSH20 0xFFFFFFFFFFFFFFFFFFFFFFFFFFFFFFFFFFFFFFFF AND DUP3 PUSH1 0x40 MLOAD PUSH2 0x64F SWAP1 PUSH2 0x1748 JUMP JUMPDEST PUSH1 0x0 PUSH1 0x40 MLOAD DUP1 DUP4 SUB DUP2 DUP6 DUP8 GAS CALL SWAP3 POP POP POP RETURNDATASIZE DUP1 PUSH1 0x0 DUP2 EQ PUSH2 0x68C JUMPI PUSH1 0x40 MLOAD SWAP2 POP PUSH1 0x1F NOT PUSH1 0x3F RETURNDATASIZE ADD AND DUP3 ADD PUSH1 0x40 MSTORE RETURNDATASIZE DUP3 MSTORE RETURNDATASIZE PUSH1 0x0 PUSH1 0x20 DUP5 ADD RETURNDATACOPY PUSH2 0x691 JUMP JUMPDEST PUSH1 0x60 SWAP2 POP JUMPDEST POP POP SWAP1 POP DUP1 PUSH2 0x6D5 JUMPI PUSH1 0x40 MLOAD PUSH32 0x8C379A000000000000000000000000000000000000000000000000000000000 DUP2 MSTORE PUSH1 0x4 ADD PUSH2 0x6CC SWAP1 PUSH2 0x17A9 JUMP JUMPDEST PUSH1 0x40 MLOAD DUP1 SWAP2 SUB SWAP1 REVERT JUMPDEST CALLER PUSH20 0xFFFFFFFFFFFFFFFFFFFFFFFFFFFFFFFFFFFFFFFF AND DUP6 PUSH32 0xF440AEC6B52895984D061D622E6EDEBA6210F7C3E059BE920663140C084560D7 DUP5 PUSH1 0x40 MLOAD PUSH2 0x71C SWAP2 SWAP1 PUSH2 0x109C JUMP JUMPDEST PUSH1 0x40 MLOAD DUP1 SWAP2 SUB SWAP1 LOG3 POP POP POP POP POP JUMP JUMPDEST PUSH1 0x0 DUP2 GT DUP1 ISZERO PUSH2 0x73D JUMPI POP PUSH1 0x0 SLOAD DUP2 GT ISZERO JUMPDEST PUSH2 0x77C JUMPI PUSH1 0x40 MLOAD PUSH32 0x8C379A000000000000000000000000000000000000000000000000000000000 DUP2 MSTORE PUSH1 0x4 ADD PUSH2 0x773 SWAP1 PUSH2 0x1815 JUMP JUMPDEST PUSH1 0x40 MLOAD DUP1 SWAP2 SUB SWAP1 REVERT JUMPDEST CALLER PUSH20 0xFFFFFFFFFFFFFFFFFFFFFFFFFFFFFFFFFFFFFFFF AND PUSH1 0x1 PUSH1 0x0 DUP4 DUP2 MSTORE PUSH1 0x20 ADD SWAP1 DUP2 MSTORE PUSH1 0x20 ADD PUSH1 0x0 KECCAK256 PUSH1 0x1 ADD PUSH1 0x0 SWAP1 SLOAD SWAP1 PUSH2 0x100 EXP SWAP1 DIV PUSH20 0xFFFFFFFFFFFFFFFFFFFFFFFFFFFFFFFFFFFFFFFF AND PUSH20 0xFFFFFFFFFFFFFFFFFFFFFFFFFFFFFFFFFFFFFFFF AND EQ PUSH2 0x820 JUMPI PUSH1 0x40 MLOAD PUSH32 0x8C379A000000000000000000000000000000000000000000000000000000000 DUP2 MSTORE PUSH1 0x4 ADD PUSH2 0x817 SWAP1 PUSH2 0x1881 JUMP JUMPDEST PUSH1 0x40 MLOAD DUP1 SWAP2 SUB SWAP1 REVERT JUMPDEST PUSH1 0x1 PUSH1 0x0 DUP3 DUP2 MSTORE PUSH1 0x20 ADD SWAP1 DUP2 MSTORE PUSH1 0x20 ADD PUSH1 0x0 KECCAK256 PUSH1 0x8 ADD PUSH1 0x0 SWAP1 SLOAD SWAP1 PUSH2 0x100 EXP SWAP1 DIV PUSH1 0xFF AND PUSH2 0x883 JUMPI PUSH1 0x40 MLOAD PUSH32 0x8C379A000000000000000000000000000000000000000000000000000000000 DUP2 MSTORE PUSH1 0x4 ADD PUSH2 0x87A SWAP1 PUSH2 0x18ED JUMP JUMPDEST PUSH1 0x40 MLOAD DUP1 SWAP2 SUB SWAP1 REVERT JUMPDEST PUSH1 0x0 PUSH1 0x1 PUSH1 0x0 DUP4 DUP2 MSTORE PUSH1 0x20 ADD SWAP1 DUP2 MSTORE PUSH1 0x20 ADD PUSH1 0x0 KECCAK256 PUSH1 0x7 ADD SLOAD EQ PUSH2 0x8DC JUMPI PUSH1 0x40 MLOAD PUSH32 0x8C379A000000000000000000000000000000000000000000000000000000000 DUP2 MSTORE PUSH1 0x4 ADD PUSH2 0x8D3 SWAP1 PUSH2 0x197F JUMP JUMPDEST PUSH1 0x40 MLOAD DUP1 SWAP2 SUB SWAP1 REVERT JUMPDEST PUSH1 0x0 PUSH1 0x1 PUSH1 0x0 DUP4 DUP2 MSTORE PUSH1 0x20 ADD SWAP1 DUP2 MSTORE PUSH1 0x20 ADD PUSH1 0x0 KECCAK256 PUSH1 0x8 ADD PUSH1 0x0 PUSH2 0x100 EXP DUP2 SLOAD DUP2 PUSH1 0xFF MUL NOT AND SWAP1 DUP4 ISZERO ISZERO MUL OR SWAP1 SSTORE POP DUP1 PUSH32 0x8C2A9A6341BBA6C545DE035FE1175518191D1EC50716506635B641372AF17C5F PUSH1 0x40 MLOAD PUSH1 0x40 MLOAD DUP1 SWAP2 SUB SWAP1 LOG2 POP JUMP JUMPDEST PUSH1 0x0 DUP2 GT DUP1 ISZERO PUSH2 0x94D JUMPI POP PUSH1 0x0 SLOAD DUP2 GT ISZERO JUMPDEST PUSH2 0x98C JUMPI PUSH1 0x40 MLOAD PUSH32 0x8C379A000000000000000000000000000000000000000000000000000000000 DUP2 MSTORE PUSH1 0x4 ADD PUSH2 0x983 SWAP1 PUSH2 0x1815 JUMP JUMPDEST PUSH1 0x40 MLOAD DUP1 SWAP2 SUB SWAP1 REVERT JUMPDEST PUSH1 0x0 PUSH1 0x1 PUSH1 0x0 DUP4 DUP2 MSTORE PUSH1 0x20 ADD SWAP1 DUP2 MSTORE PUSH1 0x20 ADD PUSH1 0x0 KECCAK256 SWAP1 POP DUP1 PUSH1 0x8 ADD PUSH1 0x0 SWAP1 SLOAD SWAP1 PUSH2 0x100 EXP SWAP1 DIV PUSH1 0xFF AND PUSH2 0x9F4 JUMPI PUSH1 0x40 MLOAD PUSH32 0x8C379A000000000000000000000000000000000000000000000000000000000 DUP2 MSTORE PUSH1 0x4 ADD PUSH2 0x9EB SWAP1 PUSH2 0x19EB JUMP JUMPDEST PUSH1 0x40 MLOAD DUP1 SWAP2 SUB SWAP1 REVERT JUMPDEST PUSH1 0x0 CALLVALUE GT PUSH2 0xA37 JUMPI PUSH1 0x40 MLOAD PUSH32 0x8C379A000000000000000000000000000000000000000000000000000000000 DUP2 MSTORE PUSH1 0x4 ADD PUSH2 0xA2E SWAP1 PUSH2 0x1A7D JUMP JUMPDEST PUSH1 0x40 MLOAD DUP1 SWAP2 SUB SWAP1 REVERT JUMPDEST DUP1 PUSH1 0x6 ADD SLOAD CALLVALUE DUP3 PUSH1 0x7 ADD SLOAD PUSH2 0xA4C SWAP2 SWAP1 PUSH2 0x1ACC JUMP JUMPDEST GT ISZERO PUSH2 0xA8D JUMPI PUSH1 0x40 MLOAD PUSH32 0x8C379A000000000000000000000000000000000000000000000000000000000 DUP2 MSTORE PUSH1 0x4 ADD PUSH2 0xA84 SWAP1 PUSH2 0x1B72 JUMP JUMPDEST PUSH1 0x40 MLOAD DUP1 SWAP2 SUB SWAP1 REVERT JUMPDEST CALLVALUE DUP2 PUSH1 0x9 ADD PUSH1 0x0 CALLER PUSH20 0xFFFFFFFFFFFFFFFFFFFFFFFFFFFFFFFFFFFFFFFF AND PUSH20 0xFFFFFFFFFFFFFFFFFFFFFFFFFFFFFFFFFFFFFFFF AND DUP2 MSTORE PUSH1 0x20 ADD SWAP1 DUP2 MSTORE PUSH1 0x20 ADD PUSH1 0x0 KECCAK256 PUSH1 0x0 DUP3 DUP3 SLOAD PUSH2 0xADE SWAP2 SWAP1 PUSH2 0x1ACC JUMP JUMPDEST SWAP3 POP POP DUP2 SWAP1 SSTORE POP CALLVALUE DUP2 PUSH1 0x7 ADD PUSH1 0x0 DUP3 DUP3 SLOAD PUSH2 0xAF9 SWAP2 SWAP1 PUSH2 0x1ACC JUMP JUMPDEST SWAP3 POP POP DUP2 SWAP1 SSTORE POP DUP1 PUSH1 0x6 ADD SLOAD DUP2 PUSH1 0x7 ADD SLOAD SUB PUSH2 0xB2D JUMPI PUSH1 0x0 DUP2 PUSH1 0x8 ADD PUSH1 0x0 PUSH2 0x100 EXP DUP2 SLOAD DUP2 PUSH1 0xFF MUL NOT AND SWAP1 DUP4 ISZERO ISZERO MUL OR SWAP1 SSTORE POP JUMPDEST CALLER PUSH20 0xFFFFFFFFFFFFFFFFFFFFFFFFFFFFFFFFFFFFFFFF AND DUP3 PUSH32 0x89728D542D77FAD9FE42C7D1F032C2B85F64CF938D754183B0E95359FBFAC8A1 CALLVALUE PUSH1 0x40 MLOAD PUSH2 0xB74 SWAP2 SWAP1 PUSH2 0x109C JUMP JUMPDEST PUSH1 0x40 MLOAD DUP1 SWAP2 SUB SWAP1 LOG3 POP POP JUMP JUMPDEST PUSH1 0x0 PUSH1 0x60 DUP1 PUSH1 0x60 DUP1 PUSH1 0x0 DUP1 PUSH1 0x0 DUP1 PUSH1 0x1 PUSH1 0x0 DUP12 DUP2 MSTORE PUSH1 0x20 ADD SWAP1 DUP2 MSTORE PUSH1 0x20 ADD PUSH1 0x0 KECCAK256 SWAP1 POP DUP1 PUSH1 0x1 ADD PUSH1 0x0 SWAP1 SLOAD SWAP1 PUSH2 0x100 EXP SWAP1 DIV PUSH20 0xFFFFFFFFFFFFFFFFFFFFFFFFFFFFFFFFFFFFFFFF AND DUP2 PUSH1 0x2 ADD DUP3 PUSH1 0x3 ADD DUP4 PUSH1 0x4 ADD DUP5 PUSH1 0x5 ADD DUP6 PUSH1 0x6 ADD SLOAD DUP7 PUSH1 0x7 ADD SLOAD DUP8 PUSH1 0x8 ADD PUSH1 0x0 SWAP1 SLOAD SWAP1 PUSH2 0x100 EXP SWAP1 DIV PUSH1 0xFF AND DUP7 DUP1 SLOAD PUSH2 0xC00 SWAP1 PUSH2 0x160E JUMP JUMPDEST DUP1 PUSH1 0x1F ADD PUSH1 0x20 DUP1 SWAP2 DIV MUL PUSH1 0x20 ADD PUSH1 0x40 MLOAD SWAP1 DUP2 ADD PUSH1 0x40 MSTORE DUP1 SWAP3 SWAP2 SWAP1 DUP2 DUP2 MSTORE PUSH1 0x20 ADD DUP3 DUP1 SLOAD PUSH2 0xC2C SWAP1 PUSH2 0x160E JUMP JUMPDEST DUP1 ISZERO PUSH2 0xC79 JUMPI DUP1 PUSH1 0x1F LT PUSH2 0xC4E JUMPI PUSH2 0x100 DUP1 DUP4 SLOAD DIV MUL DUP4 MSTORE SWAP2 PUSH1 0x20 ADD SWAP2 PUSH2 0xC79 JUMP JUMPDEST DUP3 ADD SWAP2 SWAP1 PUSH1 0x0 MSTORE PUSH1 0x20 PUSH1 0x0 KECCAK256 SWAP1 JUMPDEST DUP2 SLOAD DUP2 MSTORE SWAP1 PUSH1 0x1 ADD SWAP1 PUSH1 0x20 ADD DUP1 DUP4 GT PUSH2 0xC5C JUMPI DUP3 SWAP1 SUB PUSH1 0x1F AND DUP3 ADD SWAP2 JUMPDEST POP POP POP POP POP SWAP7 POP DUP6 DUP1 SLOAD PUSH2 0xC8C SWAP1 PUSH2 0x160E JUMP JUMPDEST DUP1 PUSH1 0x1F ADD PUSH1 0x20 DUP1 SWAP2 DIV MUL PUSH1 0x20 ADD PUSH1 0x40 MLOAD SWAP1 DUP2 ADD PUSH1 0x40 MSTORE DUP1 SWAP3 SWAP2 SWAP1 DUP2 DUP2 MSTORE PUSH1 0x20 ADD DUP3 DUP1 SLOAD PUSH2 0xCB8 SWAP1 PUSH2 0x160E JUMP JUMPDEST DUP1 ISZERO PUSH2 0xD05 JUMPI DUP1 PUSH1 0x1F LT PUSH2 0xCDA JUMPI PUSH2 0x100 DUP1 DUP4 SLOAD DIV MUL DUP4 MSTORE SWAP2 PUSH1 0x20 ADD SWAP2 PUSH2 0xD05 JUMP JUMPDEST DUP3 ADD SWAP2 SWAP1 PUSH1 0x0 MSTORE PUSH1 0x20 PUSH1 0x0 KECCAK256 SWAP1 JUMPDEST DUP2 SLOAD DUP2 MSTORE SWAP1 PUSH1 0x1 ADD SWAP1 PUSH1 0x20 ADD DUP1 DUP4 GT PUSH2 0xCE8 JUMPI DUP3 SWAP1 SUB PUSH1 0x1F AND DUP3 ADD SWAP2 JUMPDEST POP POP POP POP POP SWAP6 POP DUP5 DUP1 SLOAD PUSH2 0xD18 SWAP1 PUSH2 0x160E JUMP JUMPDEST DUP1 PUSH1 0x1F ADD PUSH1 0x20 DUP1 SWAP2 DIV MUL PUSH1 0x20 ADD PUSH1 0x40 MLOAD SWAP1 DUP2 ADD PUSH1 0x40 MSTORE DUP1 SWAP3 SWAP2 SWAP1 DUP2 DUP2 MSTORE PUSH1 0x20 ADD DUP3 DUP1 SLOAD PUSH2 0xD44 SWAP1 PUSH2 0x160E JUMP JUMPDEST DUP1 ISZERO PUSH2 0xD91 JUMPI DUP1 PUSH1 0x1F LT PUSH2 0xD66 JUMPI PUSH2 0x100 DUP1 DUP4 SLOAD DIV MUL DUP4 MSTORE SWAP2 PUSH1 0x20 ADD SWAP2 PUSH2 0xD91 JUMP JUMPDEST DUP3 ADD SWAP2 SWAP1 PUSH1 0x0 MSTORE PUSH1 0x20 PUSH1 0x0 KECCAK256 SWAP1 JUMPDEST DUP2 SLOAD DUP2 MSTORE SWAP1 PUSH1 0x1 ADD SWAP1 PUSH1 0x20 ADD DUP1 DUP4 GT PUSH2 0xD74 JUMPI DUP3 SWAP1 SUB PUSH1 0x1F AND DUP3 ADD SWAP2 JUMPDEST POP POP POP POP POP SWAP5 POP DUP4 DUP1 SLOAD PUSH2 0xDA4 SWAP1 PUSH2 0x160E JUMP JUMPDEST DUP1 PUSH1 0x1F ADD PUSH1 0x20 DUP1 SWAP2 DIV MUL PUSH1 0x20 ADD PUSH1 0x40 MLOAD SWAP1 DUP2 ADD PUSH1 0x40 MSTORE DUP1 SWAP3 SWAP2 SWAP1 DUP2 DUP2 MSTORE PUSH1 0x20 ADD DUP3 DUP1 SLOAD PUSH2 0xDD0 SWAP1 PUSH2 0x160E JUMP JUMPDEST DUP1 ISZERO PUSH2 0xE1D JUMPI DUP1 PUSH1 0x1F LT PUSH2 0xDF2 JUMPI PUSH2 0x100 DUP1 DUP4 SLOAD DIV MUL DUP4 MSTORE SWAP2 PUSH1 0x20 ADD SWAP2 PUSH2 0xE1D JUMP JUMPDEST DUP3 ADD SWAP2 SWAP1 PUSH1 0x0 MSTORE PUSH1 0x20 PUSH1 0x0 KECCAK256 SWAP1 JUMPDEST DUP2 SLOAD DUP2 MSTORE SWAP1 PUSH1 0x1 ADD SWAP1 PUSH1 0x20 ADD DUP1 DUP4 GT PUSH2 0xE00 JUMPI DUP3 SWAP1 SUB PUSH1 0x1F AND DUP3 ADD SWAP2 JUMPDEST POP POP POP POP POP SWAP4 POP SWAP9 POP SWAP9 POP SWAP9 POP SWAP9 POP SWAP9 POP SWAP9 POP SWAP9 POP SWAP9 POP POP SWAP2 SWAP4 SWAP6 SWAP8 POP SWAP2 SWAP4 SWAP6 SWAP8 JUMP JUMPDEST PUSH1 0x0 DUP1 DUP7 MLOAD GT PUSH2 0xE85 JUMPI PUSH1 0x40 MLOAD PUSH32 0x8C379A000000000000000000000000000000000000000000000000000000000 DUP2 MSTORE PUSH1 0x4 ADD PUSH2 0xE7C SWAP1 PUSH2 0x1BDE JUMP JUMPDEST PUSH1 0x40 MLOAD DUP1 SWAP2 SUB SWAP1 REVERT JUMPDEST PUSH1 0x0 DUP3 GT PUSH2 0xEC8 JUMPI PUSH1 0x40 MLOAD PUSH32 0x8C379A000000000000000000000000000000000000000000000000000000000 DUP2 MSTORE PUSH1 0x4 ADD PUSH2 0xEBF SWAP1 PUSH2 0x1C70 JUMP JUMPDEST PUSH1 0x40 MLOAD DUP1 SWAP2 SUB SWAP1 REVERT JUMPDEST PUSH1 0x0 DUP1 DUP2 SLOAD DUP1 SWAP3 SWAP2 SWAP1 PUSH2 0xEDA SWAP1 PUSH2 0x1C90 JUMP JUMPDEST SWAP2 SWAP1 POP SSTORE POP PUSH1 0x0 PUSH1 0x1 PUSH1 0x0 DUP1 SLOAD DUP2 MSTORE PUSH1 0x20 ADD SWAP1 DUP2 MSTORE PUSH1 0x20 ADD PUSH1 0x0 KECCAK256 SWAP1 POP PUSH1 0x0 SLOAD DUP2 PUSH1 0x0 ADD DUP2 SWAP1 SSTORE POP CALLER DUP2 PUSH1 0x1 ADD PUSH1 0x0 PUSH2 0x100 EXP DUP2 SLOAD DUP2 PUSH20 0xFFFFFFFFFFFFFFFFFFFFFFFFFFFFFFFFFFFFFFFF MUL NOT AND SWAP1 DUP4 PUSH20 0xFFFFFFFFFFFFFFFFFFFFFFFFFFFFFFFFFFFFFFFF AND MUL OR SWAP1 SSTORE POP DUP7 DUP2 PUSH1 0x2 ADD SWAP1 DUP2 PUSH2 0xF56 SWAP2 SWAP1 PUSH2 0x1E84 JUMP JUMPDEST POP DUP6 DUP2 PUSH1 0x3 ADD SWAP1 DUP2 PUSH2 0xF68 SWAP2 SWAP1 PUSH2 0x1E84 JUMP JUMPDEST POP DUP5 DUP2 PUSH1 0x4 ADD SWAP1 DUP2 PUSH2 0xF7A SWAP2 SWAP1 PUSH2 0x1E84 JUMP JUMPDEST POP DUP4 DUP2 PUSH1 0x5 ADD SWAP1 DUP2 PUSH2 0xF8C SWAP2 SWAP1 PUSH2 0x1E84 JUMP JUMPDEST POP DUP3 DUP2 PUSH1 0x6 ADD DUP2 SWAP1 SSTORE POP PUSH1 0x0 DUP2 PUSH1 0x7 ADD DUP2 SWAP1 SSTORE POP PUSH1 0x1 DUP2 PUSH1 0x8 ADD PUSH1 0x0 PUSH2 0x100 EXP DUP2 SLOAD DUP2 PUSH1 0xFF MUL NOT AND SWAP1 DUP4 ISZERO ISZERO MUL OR SWAP1 SSTORE POP CALLER PUSH20 0xFFFFFFFFFFFFFFFFFFFFFFFFFFFFFFFFFFFFFFFF AND PUSH1 0x0 SLOAD PUSH32 0x51D08CB6CFA640A387210FB69DF925DFB70169AE7373F8ECD40B977B0C800D9A DUP10 DUP7 PUSH1 0x40 MLOAD PUSH2 0x1008 SWAP3 SWAP2 SWAP1 PUSH2 0x1F56 JUMP JUMPDEST PUSH1 0x40 MLOAD DUP1 SWAP2 SUB SWAP1 LOG3 PUSH1 0x0 SLOAD SWAP2 POP POP SWAP6 SWAP5 POP POP POP POP POP JUMP JUMPDEST PUSH1 0x0 PUSH1 0x1 PUSH1 0x0 DUP5 DUP2 MSTORE PUSH1 0x20 ADD SWAP1 DUP2 MSTORE PUSH1 0x20 ADD PUSH1 0x0 KECCAK256 PUSH1 0x9 ADD PUSH1 0x0 DUP4 PUSH20 0xFFFFFFFFFFFFFFFFFFFFFFFFFFFFFFFFFFFFFFFF AND PUSH20 0xFFFFFFFFFFFFFFFFFFFFFFFFFFFFFFFFFFFFFFFF AND DUP2 MSTORE PUSH1 0x20 ADD SWAP1 DUP2 MSTORE PUSH1 0x20 ADD PUSH1 0x0 KECCAK256 SLOAD SWAP1 POP SWAP3 SWAP2 POP POP JUMP JUMPDEST PUSH1 0x0 SLOAD DUP2 JUMP JUMPDEST PUSH1 0x0 DUP2 SWAP1 POP SWAP2 SWAP1 POP JUMP JUMPDEST PUSH2 0x1096 DUP2 PUSH2 0x1083 JUMP JUMPDEST DUP3 MSTORE POP POP JUMP JUMPDEST PUSH1 0x0 PUSH1 0x20 DUP3 ADD SWAP1 POP PUSH2 0x10B1 PUSH1 0x0 DUP4 ADD DUP5 PUSH2 0x108D JUMP JUMPDEST SWAP3 SWAP2 POP POP JUMP JUMPDEST PUSH1 0x0 PUSH1 0x40 MLOAD SWAP1 POP SWAP1 JUMP JUMPDEST PUSH1 0x0 DUP1 REVERT JUMPDEST PUSH1 0x0 DUP1 REVERT JUMPDEST PUSH2 0x10D4 DUP2 PUSH2 0x1083 JUMP JUMPDEST DUP2 EQ PUSH2 0x10DF JUMPI PUSH1 0x0 DUP1 REVERT JUMPDEST POP JUMP JUMPDEST PUSH1 0x0 DUP2 CALLDATALOAD SWAP1 POP PUSH2 0x10F1 DUP2 PUSH2 0x10CB JUMP JUMPDEST SWAP3 SWAP2 POP POP JUMP JUMPDEST PUSH1 0x0 PUSH1 0x20 DUP3 DUP5 SUB SLT ISZERO PUSH2 0x110D JUMPI PUSH2 0x110C PUSH2 0x10C1 JUMP JUMPDEST JUMPDEST PUSH1 0x0 PUSH2 0x111B DUP5 DUP3 DUP6 ADD PUSH2 0x10E2 JUMP JUMPDEST SWAP2 POP POP SWAP3 SWAP2 POP POP JUMP JUMPDEST PUSH1 0x0 PUSH20 0xFFFFFFFFFFFFFFFFFFFFFFFFFFFFFFFFFFFFFFFF DUP3 AND SWAP1 POP SWAP2 SWAP1 POP JUMP JUMPDEST PUSH1 0x0 PUSH2 0x114F DUP3 PUSH2 0x1124 JUMP JUMPDEST SWAP1 POP SWAP2 SWAP1 POP JUMP JUMPDEST PUSH2 0x115F DUP2 PUSH2 0x1144 JUMP JUMPDEST DUP3 MSTORE POP POP JUMP JUMPDEST PUSH1 0x0 DUP2 MLOAD SWAP1 POP SWAP2 SWAP1 POP JUMP JUMPDEST PUSH1 0x0 DUP3 DUP3 MSTORE PUSH1 0x20 DUP3 ADD SWAP1 POP SWAP3 SWAP2 POP POP JUMP JUMPDEST PUSH1 0x0 JUMPDEST DUP4 DUP2 LT ISZERO PUSH2 0x119F JUMPI DUP1 DUP3 ADD MLOAD DUP2 DUP5 ADD MSTORE PUSH1 0x20 DUP2 ADD SWAP1 POP PUSH2 0x1184 JUMP JUMPDEST PUSH1 0x0 DUP5 DUP5 ADD MSTORE POP POP POP POP JUMP JUMPDEST PUSH1 0x0 PUSH1 0x1F NOT PUSH1 0x1F DUP4 ADD AND SWAP1 POP SWAP2 SWAP1 POP JUMP JUMPDEST PUSH1 0x0 PUSH2 0x11C7 DUP3 PUSH2 0x1165 JUMP JUMPDEST PUSH2 0x11D1 DUP2 DUP6 PUSH2 0x1170 JUMP JUMPDEST SWAP4 POP PUSH2 0x11E1 DUP2 DUP6 PUSH1 0x20 DUP7 ADD PUSH2 0x1181 JUMP JUMPDEST PUSH2 0x11EA DUP2 PUSH2 0x11AB JUMP JUMPDEST DUP5 ADD SWAP2 POP POP SWAP3 SWAP2 POP POP JUMP JUMPDEST PUSH1 0x0 DUP2 ISZERO ISZERO SWAP1 POP SWAP2 SWAP1 POP JUMP JUMPDEST PUSH2 0x120A DUP2 PUSH2 0x11F5 JUMP JUMPDEST DUP3 MSTORE POP POP JUMP JUMPDEST PUSH1 0x0 PUSH2 0x120 DUP3 ADD SWAP1 POP PUSH2 0x1226 PUSH1 0x0 DUP4 ADD DUP13 PUSH2 0x108D JUMP JUMPDEST PUSH2 0x1233 PUSH1 0x20 DUP4 ADD DUP12 PUSH2 0x1156 JUMP JUMPDEST DUP2 DUP2 SUB PUSH1 0x40 DUP4 ADD MSTORE PUSH2 0x1245 DUP2 DUP11 PUSH2 0x11BC JUMP JUMPDEST SWAP1 POP DUP2 DUP2 SUB PUSH1 0x60 DUP4 ADD MSTORE PUSH2 0x1259 DUP2 DUP10 PUSH2 0x11BC JUMP JUMPDEST SWAP1 POP DUP2 DUP2 SUB PUSH1 0x80 DUP4 ADD MSTORE PUSH2 0x126D DUP2 DUP9 PUSH2 0x11BC JUMP JUMPDEST SWAP1 POP DUP2 DUP2 SUB PUSH1 0xA0 DUP4 ADD MSTORE PUSH2 0x1281 DUP2 DUP8 PUSH2 0x11BC JUMP JUMPDEST SWAP1 POP PUSH2 0x1290 PUSH1 0xC0 DUP4 ADD DUP7 PUSH2 0x108D JUMP JUMPDEST PUSH2 0x129D PUSH1 0xE0 DUP4 ADD DUP6 PUSH2 0x108D JUMP JUMPDEST PUSH2 0x12AB PUSH2 0x100 DUP4 ADD DUP5 PUSH2 0x1201 JUMP JUMPDEST SWAP11 SWAP10 POP POP POP POP POP POP POP POP POP POP JUMP JUMPDEST PUSH1 0x0 PUSH2 0x100 DUP3 ADD SWAP1 POP PUSH2 0x12CF PUSH1 0x0 DUP4 ADD DUP12 PUSH2 0x1156 JUMP JUMPDEST DUP2 DUP2 SUB PUSH1 0x20 DUP4 ADD MSTORE PUSH2 0x12E1 DUP2 DUP11 PUSH2 0x11BC JUMP JUMPDEST SWAP1 POP DUP2 DUP2 SUB PUSH1 0x40 DUP4 ADD MSTORE PUSH2 0x12F5 DUP2 DUP10 PUSH2 0x11BC JUMP JUMPDEST SWAP1 POP DUP2 DUP2 SUB PUSH1 0x60 DUP4 ADD MSTORE PUSH2 0x1309 DUP2 DUP9 PUSH2 0x11BC JUMP JUMPDEST SWAP1 POP DUP2 DUP2 SUB PUSH1 0x80 DUP4 ADD MSTORE PUSH2 0x131D DUP2 DUP8 PUSH2 0x11BC JUMP JUMPDEST SWAP1 POP PUSH2 0x132C PUSH1 0xA0 DUP4 ADD DUP7 PUSH2 0x108D JUMP JUMPDEST PUSH2 0x1339 PUSH1 0xC0 DUP4 ADD DUP6 PUSH2 0x108D JUMP JUMPDEST PUSH2 0x1346 PUSH1 0xE0 DUP4 ADD DUP5 PUSH2 0x1201 JUMP JUMPDEST SWAP10 SWAP9 POP POP POP POP POP POP POP POP POP JUMP JUMPDEST PUSH1 0x0 DUP1 REVERT JUMPDEST PUSH1 0x0 DUP1 REVERT JUMPDEST PUSH32 0x4E487B7100000000000000000000000000000000000000000000000000000000 PUSH1 0x0 MSTORE PUSH1 0x41 PUSH1 0x4 MSTORE PUSH1 0x24 PUSH1 0x0 REVERT JUMPDEST PUSH2 0x1395 DUP3 PUSH2 0x11AB JUMP JUMPDEST DUP2 ADD DUP2 DUP2 LT PUSH8 0xFFFFFFFFFFFFFFFF DUP3 GT OR ISZERO PUSH2 0x13B4 JUMPI PUSH2 0x13B3 PUSH2 0x135D JUMP JUMPDEST JUMPDEST DUP1 PUSH1 0x40 MSTORE POP POP POP JUMP JUMPDEST PUSH1 0x0 PUSH2 0x13C7 PUSH2 0x10B7 JUMP JUMPDEST SWAP1 POP PUSH2 0x13D3 DUP3 DUP3 PUSH2 0x138C JUMP JUMPDEST SWAP2 SWAP1 POP JUMP JUMPDEST PUSH1 0x0 PUSH8 0xFFFFFFFFFFFFFFFF DUP3 GT ISZERO PUSH2 0x13F3 JUMPI PUSH2 0x13F2 PUSH2 0x135D JUMP JUMPDEST JUMPDEST PUSH2 0x13FC DUP3 PUSH2 0x11AB JUMP JUMPDEST SWAP1 POP PUSH1 0x20 DUP2 ADD SWAP1 POP SWAP2 SWAP1 POP JUMP JUMPDEST DUP3 DUP2 DUP4 CALLDATACOPY PUSH1 0x0 DUP4 DUP4 ADD MSTORE POP POP POP JUMP JUMPDEST PUSH1 0x0 PUSH2 0x142B PUSH2 0x1426 DUP5 PUSH2 0x13D8 JUMP JUMPDEST PUSH2 0x13BD JUMP JUMPDEST SWAP1 POP DUP3 DUP2 MSTORE PUSH1 0x20 DUP2 ADD DUP5 DUP5 DUP5 ADD GT ISZERO PUSH2 0x1447 JUMPI PUSH2 0x1446 PUSH2 0x1358 JUMP JUMPDEST JUMPDEST PUSH2 0x1452 DUP5 DUP3 DUP6 PUSH2 0x1409 JUMP JUMPDEST POP SWAP4 SWAP3 POP POP POP JUMP JUMPDEST PUSH1 0x0 DUP3 PUSH1 0x1F DUP4 ADD SLT PUSH2 0x146F JUMPI PUSH2 0x146E PUSH2 0x1353 JUMP JUMPDEST JUMPDEST DUP2 CALLDATALOAD PUSH2 0x147F DUP5 DUP3 PUSH1 0x20 DUP7 ADD PUSH2 0x1418 JUMP JUMPDEST SWAP2 POP POP SWAP3 SWAP2 POP POP JUMP JUMPDEST PUSH1 0x0 DUP1 PUSH1 0x0 DUP1 PUSH1 0x0 PUSH1 0xA0 DUP7 DUP9 SUB SLT ISZERO PUSH2 0x14A4 JUMPI PUSH2 0x14A3 PUSH2 0x10C1 JUMP JUMPDEST JUMPDEST PUSH1 0x0 DUP7 ADD CALLDATALOAD PUSH8 0xFFFFFFFFFFFFFFFF DUP2 GT ISZERO PUSH2 0x14C2 JUMPI PUSH2 0x14C1 PUSH2 0x10C6 JUMP JUMPDEST JUMPDEST PUSH2 0x14CE DUP9 DUP3 DUP10 ADD PUSH2 0x145A JUMP JUMPDEST SWAP6 POP POP PUSH1 0x20 DUP7 ADD CALLDATALOAD PUSH8 0xFFFFFFFFFFFFFFFF DUP2 GT ISZERO PUSH2 0x14EF JUMPI PUSH2 0x14EE PUSH2 0x10C6 JUMP JUMPDEST JUMPDEST PUSH2 0x14FB DUP9 DUP3 DUP10 ADD PUSH2 0x145A JUMP JUMPDEST SWAP5 POP POP PUSH1 0x40 DUP7 ADD CALLDATALOAD PUSH8 0xFFFFFFFFFFFFFFFF DUP2 GT ISZERO PUSH2 0x151C JUMPI PUSH2 0x151B PUSH2 0x10C6 JUMP JUMPDEST JUMPDEST PUSH2 0x1528 DUP9 DUP3 DUP10 ADD PUSH2 0x145A JUMP JUMPDEST SWAP4 POP POP PUSH1 0x60 DUP7 ADD CALLDATALOAD PUSH8 0xFFFFFFFFFFFFFFFF DUP2 GT ISZERO PUSH2 0x1549 JUMPI PUSH2 0x1548 PUSH2 0x10C6 JUMP JUMPDEST JUMPDEST PUSH2 0x1555 DUP9 DUP3 DUP10 ADD PUSH2 0x145A JUMP JUMPDEST SWAP3 POP POP PUSH1 0x80 PUSH2 0x1566 DUP9 DUP3 DUP10 ADD PUSH2 0x10E2 JUMP JUMPDEST SWAP2 POP POP SWAP3 SWAP6 POP SWAP3 SWAP6 SWAP1 SWAP4 POP JUMP JUMPDEST PUSH2 0x157C DUP2 PUSH2 0x1144 JUMP JUMPDEST DUP2 EQ PUSH2 0x1587 JUMPI PUSH1 0x0 DUP1 REVERT JUMPDEST POP JUMP JUMPDEST PUSH1 0x0 DUP2 CALLDATALOAD SWAP1 POP PUSH2 0x1599 DUP2 PUSH2 0x1573 JUMP JUMPDEST SWAP3 SWAP2 POP POP JUMP JUMPDEST PUSH1 0x0 DUP1 PUSH1 0x40 DUP4 DUP6 SUB SLT ISZERO PUSH2 0x15B6 JUMPI PUSH2 0x15B5 PUSH2 0x10C1 JUMP JUMPDEST JUMPDEST PUSH1 0x0 PUSH2 0x15C4 DUP6 DUP3 DUP7 ADD PUSH2 0x10E2 JUMP JUMPDEST SWAP3 POP POP PUSH1 0x20 PUSH2 0x15D5 DUP6 DUP3 DUP7 ADD PUSH2 0x158A JUMP JUMPDEST SWAP2 POP POP SWAP3 POP SWAP3 SWAP1 POP JUMP JUMPDEST PUSH32 0x4E487B7100000000000000000000000000000000000000000000000000000000 PUSH1 0x0 MSTORE PUSH1 0x22 PUSH1 0x4 MSTORE PUSH1 0x24 PUSH1 0x0 REVERT JUMPDEST PUSH1 0x0 PUSH1 0x2 DUP3 DIV SWAP1 POP PUSH1 0x1 DUP3 AND DUP1 PUSH2 0x1626 JUMPI PUSH1 0x7F DUP3 AND SWAP2 POP JUMPDEST PUSH1 0x20 DUP3 LT DUP2 SUB PUSH2 0x1639 JUMPI PUSH2 0x1638 PUSH2 0x15DF JUMP JUMPDEST JUMPDEST POP SWAP2 SWAP1 POP JUMP JUMPDEST PUSH32 0x4E6F74207468652070726F6A656374206F776E65720000000000000000000000 PUSH1 0x0 DUP3 ADD MSTORE POP JUMP JUMPDEST PUSH1 0x0 PUSH2 0x1675 PUSH1 0x15 DUP4 PUSH2 0x1170 JUMP JUMPDEST SWAP2 POP PUSH2 0x1680 DUP3 PUSH2 0x163F JUMP JUMPDEST PUSH1 0x20 DUP3 ADD SWAP1 POP SWAP2 SWAP1 POP JUMP JUMPDEST PUSH1 0x0 PUSH1 0x20 DUP3 ADD SWAP1 POP DUP2 DUP2 SUB PUSH1 0x0 DUP4 ADD MSTORE PUSH2 0x16A4 DUP2 PUSH2 0x1668 JUMP JUMPDEST SWAP1 POP SWAP2 SWAP1 POP JUMP JUMPDEST PUSH32 0x4E6F2066756E647320746F207769746864726177000000000000000000000000 PUSH1 0x0 DUP3 ADD MSTORE POP JUMP JUMPDEST PUSH1 0x0 PUSH2 0x16E1 PUSH1 0x14 DUP4 PUSH2 0x1170 JUMP JUMPDEST SWAP2 POP PUSH2 0x16EC DUP3 PUSH2 0x16AB JUMP JUMPDEST PUSH1 0x20 DUP3 ADD SWAP1 POP SWAP2 SWAP1 POP JUMP JUMPDEST PUSH1 0x0 PUSH1 0x20 DUP3 ADD SWAP1 POP DUP2 DUP2 SUB PUSH1 0x0 DUP4 ADD MSTORE PUSH2 0x1710 DUP2 PUSH2 0x16D4 JUMP JUMPDEST SWAP1 POP SWAP2 SWAP1 POP JUMP JUMPDEST PUSH1 0x0 DUP2 SWAP1 POP SWAP3 SWAP2 POP POP JUMP JUMPDEST POP JUMP JUMPDEST PUSH1 0x0 PUSH2 0x1732 PUSH1 0x0 DUP4 PUSH2 0x1717 JUMP JUMPDEST SWAP2 POP PUSH2 0x173D DUP3 PUSH2 0x1722 JUMP JUMPDEST PUSH1 0x0 DUP3 ADD SWAP1 POP SWAP2 SWAP1 POP JUMP JUMPDEST PUSH1 0x0 PUSH2 0x1753 DUP3 PUSH2 0x1725 JUMP JUMPDEST SWAP2 POP DUP2 SWAP1 POP SWAP2 SWAP1 POP JUMP JUMPDEST PUSH32 0x5472616E73666572206661696C65640000000000000000000000000000000000 PUSH1 0x0 DUP3 ADD MSTORE POP JUMP JUMPDEST PUSH1 0x0 PUSH2 0x1793 PUSH1 0xF DUP4 PUSH2 0x1170 JUMP JUMPDEST SWAP2 POP PUSH2 0x179E DUP3 PUSH2 0x175D JUMP JUMPDEST PUSH1 0x20 DUP3 ADD SWAP1 POP SWAP2 SWAP1 POP JUMP JUMPDEST PUSH1 0x0 PUSH1 0x20 DUP3 ADD SWAP1 POP DUP2 DUP2 SUB PUSH1 0x0 DUP4 ADD MSTORE PUSH2 0x17C2 DUP2 PUSH2 0x1786 JUMP JUMPDEST SWAP1 POP SWAP2 SWAP1 POP JUMP JUMPDEST PUSH32 0x496E76616C69642070726F6A6563742049440000000000000000000000000000 PUSH1 0x0 DUP3 ADD MSTORE POP JUMP JUMPDEST PUSH1 0x0 PUSH2 0x17FF PUSH1 0x12 DUP4 PUSH2 0x1170 JUMP JUMPDEST SWAP2 POP PUSH2 0x180A DUP3 PUSH2 0x17C9 JUMP JUMPDEST PUSH1 0x20 DUP3 ADD SWAP1 POP SWAP2 SWAP1 POP JUMP JUMPDEST PUSH1 0x0 PUSH1 0x20 DUP3 ADD SWAP1 POP DUP2 DUP2 SUB PUSH1 0x0 DUP4 ADD MSTORE PUSH2 0x182E DUP2 PUSH2 0x17F2 JUMP JUMPDEST SWAP1 POP SWAP2 SWAP1 POP JUMP JUMPDEST PUSH32 0x4F6E6C79206F776E65722063616E2064656C6574652070726F6A656374000000 PUSH1 0x0 DUP3 ADD MSTORE POP JUMP JUMPDEST PUSH1 0x0 PUSH2 0x186B PUSH1 0x1D DUP4 PUSH2 0x1170 JUMP JUMPDEST SWAP2 POP PUSH2 0x1876 DUP3 PUSH2 0x1835 JUMP JUMPDEST PUSH1 0x20 DUP3 ADD SWAP1 POP SWAP2 SWAP1 POP JUMP JUMPDEST PUSH1 0x0 PUSH1 0x20 DUP3 ADD SWAP1 POP DUP2 DUP2 SUB PUSH1 0x0 DUP4 ADD MSTORE PUSH2 0x189A DUP2 PUSH2 0x185E JUMP JUMPDEST SWAP1 POP SWAP2 SWAP1 POP JUMP JUMPDEST PUSH32 0x50726F6A65637420697320616C726561647920696E6163746976650000000000 PUSH1 0x0 DUP3 ADD MSTORE POP JUMP JUMPDEST PUSH1 0x0 PUSH2 0x18D7 PUSH1 0x1B DUP4 PUSH2 0x1170 JUMP JUMPDEST SWAP2 POP PUSH2 0x18E2 DUP3 PUSH2 0x18A1 JUMP JUMPDEST PUSH1 0x20 DUP3 ADD SWAP1 POP SWAP2 SWAP1 POP JUMP JUMPDEST PUSH1 0x0 PUSH1 0x20 DUP3 ADD SWAP1 POP DUP2 DUP2 SUB PUSH1 0x0 DUP4 ADD MSTORE PUSH2 0x1906 DUP2 PUSH2 0x18CA JUMP JUMPDEST SWAP1 POP SWAP2 SWAP1 POP JUMP JUMPDEST PUSH32 0x43616E6E6F742064656C6574652070726F6A656374207769746820696E766573 PUSH1 0x0 DUP3 ADD MSTORE PUSH32 0x746D656E74730000000000000000000000000000000000000000000000000000 PUSH1 0x20 DUP3 ADD MSTORE POP JUMP JUMPDEST PUSH1 0x0 PUSH2 0x1969 PUSH1 0x26 DUP4 PUSH2 0x1170 JUMP JUMPDEST SWAP2 POP PUSH2 0x1974 DUP3 PUSH2 0x190D JUMP JUMPDEST PUSH1 0x40 DUP3 ADD SWAP1 POP SWAP2 SWAP1 POP JUMP JUMPDEST PUSH1 0x0 PUSH1 0x20 DUP3 ADD SWAP1 POP DUP2 DUP2 SUB PUSH1 0x0 DUP4 ADD MSTORE PUSH2 0x1998 DUP2 PUSH2 0x195C JUMP JUMPDEST SWAP1 POP SWAP2 SWAP1 POP JUMP JUMPDEST PUSH32 0x50726F6A656374206973206E6F74206163746976650000000000000000000000 PUSH1 0x0 DUP3 ADD MSTORE POP JUMP JUMPDEST PUSH1 0x0 PUSH2 0x19D5 PUSH1 0x15 DUP4 PUSH2 0x1170 JUMP JUMPDEST SWAP2 POP PUSH2 0x19E0 DUP3 PUSH2 0x199F JUMP JUMPDEST PUSH1 0x20 DUP3 ADD SWAP1 POP SWAP2 SWAP1 POP JUMP JUMPDEST PUSH1 0x0 PUSH1 0x20 DUP3 ADD SWAP1 POP DUP2 DUP2 SUB PUSH1 0x0 DUP4 ADD MSTORE PUSH2 0x1A04 DUP2 PUSH2 0x19C8 JUMP JUMPDEST SWAP1 POP SWAP2 SWAP1 POP JUMP JUMPDEST PUSH32 0x496E766573746D656E7420616D6F756E74206D75737420626520677265617465 PUSH1 0x0 DUP3 ADD MSTORE PUSH32 0x72207468616E2030000000000000000000000000000000000000000000000000 PUSH1 0x20 DUP3 ADD MSTORE POP JUMP JUMPDEST PUSH1 0x0 PUSH2 0x1A67 PUSH1 0x28 DUP4 PUSH2 0x1170 JUMP JUMPDEST SWAP2 POP PUSH2 0x1A72 DUP3 PUSH2 0x1A0B JUMP JUMPDEST PUSH1 0x40 DUP3 ADD SWAP1 POP SWAP2 SWAP1 POP JUMP JUMPDEST PUSH1 0x0 PUSH1 0x20 DUP3 ADD SWAP1 POP DUP2 DUP2 SUB PUSH1 0x0 DUP4 ADD MSTORE PUSH2 0x1A96 DUP2 PUSH2 0x1A5A JUMP JUMPDEST SWAP1 POP SWAP2 SWAP1 POP JUMP JUMPDEST PUSH32 0x4E487B7100000000000000000000000000000000000000000000000000000000 PUSH1 0x0 MSTORE PUSH1 0x11 PUSH1 0x4 MSTORE PUSH1 0x24 PUSH1 0x0 REVERT JUMPDEST PUSH1 0x0 PUSH2 0x1AD7 DUP3 PUSH2 0x1083 JUMP JUMPDEST SWAP2 POP PUSH2 0x1AE2 DUP4 PUSH2 0x1083 JUMP JUMPDEST SWAP3 POP DUP3 DUP3 ADD SWAP1 POP DUP1 DUP3 GT ISZERO PUSH2 0x1AFA JUMPI PUSH2 0x1AF9 PUSH2 0x1A9D JUMP JUMPDEST JUMPDEST SWAP3 SWAP2 POP POP JUMP JUMPDEST PUSH32 0x496E766573746D656E7420776F756C6420657863656564207461726765742061 PUSH1 0x0 DUP3 ADD MSTORE PUSH32 0x6D6F756E74000000000000000000000000000000000000000000000000000000 PUSH1 0x20 DUP3 ADD MSTORE POP JUMP JUMPDEST PUSH1 0x0 PUSH2 0x1B5C PUSH1 0x25 DUP4 PUSH2 0x1170 JUMP JUMPDEST SWAP2 POP PUSH2 0x1B67 DUP3 PUSH2 0x1B00 JUMP JUMPDEST PUSH1 0x40 DUP3 ADD SWAP1 POP SWAP2 SWAP1 POP JUMP JUMPDEST PUSH1 0x0 PUSH1 0x20 DUP3 ADD SWAP1 POP DUP2 DUP2 SUB PUSH1 0x0 DUP4 ADD MSTORE PUSH2 0x1B8B DUP2 PUSH2 0x1B4F JUMP JUMPDEST SWAP1 POP SWAP2 SWAP1 POP JUMP JUMPDEST PUSH32 0x5469746C652063616E6E6F7420626520656D7074790000000000000000000000 PUSH1 0x0 DUP3 ADD MSTORE POP JUMP JUMPDEST PUSH1 0x0 PUSH2 0x1BC8 PUSH1 0x15 DUP4 PUSH2 0x1170 JUMP JUMPDEST SWAP2 POP PUSH2 0x1BD3 DUP3 PUSH2 0x1B92 JUMP JUMPDEST PUSH1 0x20 DUP3 ADD SWAP1 POP SWAP2 SWAP1 POP JUMP JUMPDEST PUSH1 0x0 PUSH1 0x20 DUP3 ADD SWAP1 POP DUP2 DUP2 SUB PUSH1 0x0 DUP4 ADD MSTORE PUSH2 0x1BF7 DUP2 PUSH2 0x1BBB JUMP JUMPDEST SWAP1 POP SWAP2 SWAP1 POP JUMP JUMPDEST PUSH32 0x54617267657420616D6F756E74206D7573742062652067726561746572207468 PUSH1 0x0 DUP3 ADD MSTORE PUSH32 0x616E203000000000000000000000000000000000000000000000000000000000 PUSH1 0x20 DUP3 ADD MSTORE POP JUMP JUMPDEST PUSH1 0x0 PUSH2 0x1C5A PUSH1 0x24 DUP4 PUSH2 0x1170 JUMP JUMPDEST SWAP2 POP PUSH2 0x1C65 DUP3 PUSH2 0x1BFE JUMP JUMPDEST PUSH1 0x40 DUP3 ADD SWAP1 POP SWAP2 SWAP1 POP JUMP JUMPDEST PUSH1 0x0 PUSH1 0x20 DUP3 ADD SWAP1 POP DUP2 DUP2 SUB PUSH1 0x0 DUP4 ADD MSTORE PUSH2 0x1C89 DUP2 PUSH2 0x1C4D JUMP JUMPDEST SWAP1 POP SWAP2 SWAP1 POP JUMP JUMPDEST PUSH1 0x0 PUSH2 0x1C9B DUP3 PUSH2 0x1083 JUMP JUMPDEST SWAP2 POP PUSH32 0xFFFFFFFFFFFFFFFFFFFFFFFFFFFFFFFFFFFFFFFFFFFFFFFFFFFFFFFFFFFFFFFF DUP3 SUB PUSH2 0x1CCD JUMPI PUSH2 0x1CCC PUSH2 0x1A9D JUMP JUMPDEST JUMPDEST PUSH1 0x1 DUP3 ADD SWAP1 POP SWAP2 SWAP1 POP JUMP JUMPDEST PUSH1 0x0 DUP2 SWAP1 POP DUP2 PUSH1 0x0 MSTORE PUSH1 0x20 PUSH1 0x0 KECCAK256 SWAP1 POP SWAP2 SWAP1 POP JUMP JUMPDEST PUSH1 0x0 PUSH1 0x20 PUSH1 0x1F DUP4 ADD DIV SWAP1 POP SWAP2 SWAP1 POP JUMP JUMPDEST PUSH1 0x0 DUP3 DUP3 SHL SWAP1 POP SWAP3 SWAP2 POP POP JUMP JUMPDEST PUSH1 0x0 PUSH1 0x8 DUP4 MUL PUSH2 0x1D3A PUSH32 0xFFFFFFFFFFFFFFFFFFFFFFFFFFFFFFFFFFFFFFFFFFFFFFFFFFFFFFFFFFFFFFFF DUP3 PUSH2 0x1CFD JUMP JUMPDEST PUSH2 0x1D44 DUP7 DUP4 PUSH2 0x1CFD JUMP JUMPDEST SWAP6 POP DUP1 NOT DUP5 AND SWAP4 POP DUP1 DUP7 AND DUP5 OR SWAP3 POP POP POP SWAP4 SWAP3 POP POP POP JUMP JUMPDEST PUSH1 0x0 DUP2 SWAP1 POP SWAP2 SWAP1 POP JUMP JUMPDEST PUSH1 0x0 PUSH2 0x1D81 PUSH2 0x1D7C PUSH2 0x1D77 DUP5 PUSH2 0x1083 JUMP JUMPDEST PUSH2 0x1D5C JUMP JUMPDEST PUSH2 0x1083 JUMP JUMPDEST SWAP1 POP SWAP2 SWAP1 POP JUMP JUMPDEST PUSH1 0x0 DUP2 SWAP1 POP SWAP2 SWAP1 POP JUMP JUMPDEST PUSH2 0x1D9B DUP4 PUSH2 0x1D66 JUMP JUMPDEST PUSH2 0x1DAF PUSH2 0x1DA7 DUP3 PUSH2 0x1D88 JUMP JUMPDEST DUP5 DUP5 SLOAD PUSH2 0x1D0A JUMP JUMPDEST DUP3 SSTORE POP POP POP POP JUMP JUMPDEST PUSH1 0x0 SWAP1 JUMP JUMPDEST PUSH2 0x1DC4 PUSH2 0x1DB7 JUMP JUMPDEST PUSH2 0x1DCF DUP2 DUP5 DUP5 PUSH2 0x1D92 JUMP JUMPDEST POP POP POP JUMP JUMPDEST JUMPDEST DUP2 DUP2 LT ISZERO PUSH2 0x1DF3 JUMPI PUSH2 0x1DE8 PUSH1 0x0 DUP3 PUSH2 0x1DBC JUMP JUMPDEST PUSH1 0x1 DUP2 ADD SWAP1 POP PUSH2 0x1DD5 JUMP JUMPDEST POP POP JUMP JUMPDEST PUSH1 0x1F DUP3 GT ISZERO PUSH2 0x1E38 JUMPI PUSH2 0x1E09 DUP2 PUSH2 0x1CD8 JUMP JUMPDEST PUSH2 0x1E12 DUP5 PUSH2 0x1CED JUMP JUMPDEST DUP2 ADD PUSH1 0x20 DUP6 LT ISZERO PUSH2 0x1E21 JUMPI DUP2 SWAP1 POP JUMPDEST PUSH2 0x1E35 PUSH2 0x1E2D DUP6 PUSH2 0x1CED JUMP JUMPDEST DUP4 ADD DUP3 PUSH2 0x1DD4 JUMP JUMPDEST POP POP JUMPDEST POP POP POP JUMP JUMPDEST PUSH1 0x0 DUP3 DUP3 SHR SWAP1 POP SWAP3 SWAP2 POP POP JUMP JUMPDEST PUSH1 0x0 PUSH2 0x1E5B PUSH1 0x0 NOT DUP5 PUSH1 0x8 MUL PUSH2 0x1E3D JUMP JUMPDEST NOT DUP1 DUP4 AND SWAP2 POP POP SWAP3 SWAP2 POP POP JUMP JUMPDEST PUSH1 0x0 PUSH2 0x1E74 DUP4 DUP4 PUSH2 0x1E4A JUMP JUMPDEST SWAP2 POP DUP3 PUSH1 0x2 MUL DUP3 OR SWAP1 POP SWAP3 SWAP2 POP POP JUMP JUMPDEST PUSH2 0x1E8D DUP3 PUSH2 0x1165 JUMP JUMPDEST PUSH8 0xFFFFFFFFFFFFFFFF DUP2 GT ISZERO PUSH2 0x1EA6 JUMPI PUSH2 0x1EA5 PUSH2 0x135D JUMP JUMPDEST JUMPDEST PUSH2 0x1EB0 DUP3 SLOAD PUSH2 0x160E JUMP JUMPDEST PUSH2 0x1EBB DUP3 DUP3 DUP6 PUSH2 0x1DF7 JUMP JUMPDEST PUSH1 0x0 PUSH1 0x20 SWAP1 POP PUSH1 0x1F DUP4 GT PUSH1 0x1 DUP2 EQ PUSH2 0x1EEE JUMPI PUSH1 0x0 DUP5 ISZERO PUSH2 0x1EDC JUMPI DUP3 DUP8 ADD MLOAD SWAP1 POP JUMPDEST PUSH2 0x1EE6 DUP6 DUP3 PUSH2 0x1E68 JUMP JUMPDEST DUP7 SSTORE POP PUSH2 0x1F4E JUMP JUMPDEST PUSH1 0x1F NOT DUP5 AND PUSH2 0x1EFC DUP7 PUSH2 0x1CD8 JUMP JUMPDEST PUSH1 0x0 JUMPDEST DUP3 DUP2 LT ISZERO PUSH2 0x1F24 JUMPI DUP5 DUP10 ADD MLOAD DUP3 SSTORE PUSH1 0x1 DUP3 ADD SWAP2 POP PUSH1 0x20 DUP6 ADD SWAP5 POP PUSH1 0x20 DUP2 ADD SWAP1 POP PUSH2 0x1EFF JUMP JUMPDEST DUP7 DUP4 LT ISZERO PUSH2 0x1F41 JUMPI DUP5 DUP10 ADD MLOAD PUSH2 0x1F3D PUSH1 0x1F DUP10 AND DUP3 PUSH2 0x1E4A JUMP JUMPDEST DUP4 SSTORE POP JUMPDEST PUSH1 0x1 PUSH1 0x2 DUP9 MUL ADD DUP9 SSTORE POP POP POP JUMPDEST POP POP POP POP POP POP JUMP JUMPDEST PUSH1 0x0 PUSH1 0x40 DUP3 ADD SWAP1 POP DUP2 DUP2 SUB PUSH1 0x0 DUP4 ADD MSTORE PUSH2 0x1F70 DUP2 DUP6 PUSH2 0x11BC JUMP JUMPDEST SWAP1 POP PUSH2 0x1F7F PUSH1 0x20 DUP4 ADD DUP5 PUSH2 0x108D JUMP JUMPDEST SWAP4 SWAP3 POP POP POP JUMP INVALID LOG2 PUSH5 0x6970667358 0x22 SLT KECCAK256 NUMBER 0x29 SUB MUL 0xAE 0xE7 0x49 SWAP15 0xBB 0x4D DUP13 MLOAD 0x2A DUP16 0x5D 0xB1 0xEC 0x5F JUMPDEST ISZERO DUP5 DUP10 MULMOD DUP13 RETURNDATACOPY JUMPI REVERT SAR LOG2 0x27 0xA6 0x49 PUSH5 0x736F6C6343 STOP ADDMOD SGT STOP CALLER "},"methodIdentifiers":{"createProject(string,string,string,string,uint256)":"a78c389a","deleteProject(uint256)":"4cd0cb28","getInvestmentAmount(uint256,address)":"bb7e385a","getProjectCounter()":"0c527d9d","getProjectDetails(uint256)":"5f8439e3","investInProject(uint256)":"5b562fd8","projectCounter()":"f8a518ed","projects(uint256)":"107046bd","withdrawFunds(uint256)":"155dd5ee"}}}}}