{
  "_format": "hh-sol-artifact-1",
  "contractName": "FarmingProjects",
  "sourceName": "contracts/FarmingProjects.sol",
  "abi": [
    {
      "anonymous": false,
      "inputs": [
        {
          "indexed": true,
          "internalType": "uint256",
          "name": "projectId",
          "type": "uint256"
        },
        {
          "indexed": true,
          "internalType": "address",
          "name": "owner",
          "type": "address"
        },
        {
          "indexed": false,
          "internalType": "uint256",
          "name": "amount",
          "type": "uint256"
        }
      ],
      "name": "FundsWithdrawn",
      "type": "event"
    },
    {
      "anonymous": false,
      "inputs": [
        {
          "indexed": true,
          "internalType": "uint256",
          "name": "projectId",
          "type": "uint256"
        },
        {
          "indexed": true,
          "internalType": "address",
          "name": "investor",
          "type": "address"
        },
        {
          "indexed": false,
          "internalType": "uint256",
          "name": "amount",
          "type": "uint256"
        }
      ],
      "name": "InvestmentMade",
      "type": "event"
    },
    {
      "anonymous": false,
      "inputs": [
        {
          "indexed": true,
          "internalType": "uint256",
          "name": "projectId",
          "type": "uint256"
        },
        {
          "indexed": true,
          "internalType": "address",
          "name": "owner",
          "type": "address"
        },
        {
          "indexed": false,
          "internalType": "string",
          "name": "title",
          "type": "string"
        },
        {
          "indexed": false,
          "internalType": "uint256",
          "name": "targetAmount",
          "type": "uint256"
        }
      ],
      "name": "ProjectCreated",
      "type": "event"
    },
    {
      "anonymous": false,
      "inputs": [
        {
          "indexed": true,
          "internalType": "uint256",
          "name": "projectId",
          "type": "uint256"
        }
      ],
      "name": "ProjectDeleted",
      "type": "event"
    },
    {
      "inputs": [
        {
          "internalType": "string",
          "name": "_title",
          "type": "string"
        },
        {
          "internalType": "string",
          "name": "_description",
          "type": "string"
        },
        {
          "internalType": "string",
          "name": "_specificAddress",
          "type": "string"
        },
        {
          "internalType": "string",
          "name": "_city",
          "type": "string"
        },
        {
          "internalType": "string",
          "name": "_department",
          "type": "string"
        },
        {
          "internalType": "string",
          "name": "_country",
          "type": "string"
        },
        {
          "internalType": "string",
          "name": "_imageUrl",
          "type": "string"
        },
        {
          "internalType": "uint256",
          "name": "_targetAmount",
          "type": "uint256"
        }
      ],
      "name": "createProject",
      "outputs": [
        {
          "internalType": "uint256",
          "name": "",
          "type": "uint256"
        }
      ],
      "stateMutability": "nonpayable",
      "type": "function"
    },
    {
      "inputs": [
        {
          "internalType": "uint256",
          "name": "_projectId",
          "type": "uint256"
        }
      ],
      "name": "deleteProject",
      "outputs": [],
      "stateMutability": "nonpayable",
      "type": "function"
    },
    {
      "inputs": [
        {
          "internalType": "uint256",
          "name": "_projectId",
          "type": "uint256"
        },
        {
          "internalType": "address",
          "name": "_investor",
          "type": "address"
        }
      ],
      "name": "getInvestmentAmount",
      "outputs": [
        {
          "internalType": "uint256",
          "name": "",
          "type": "uint256"
        }
      ],
      "stateMutability": "view",
      "type": "function"
    },
    {
      "inputs": [],
      "name": "getProjectCounter",
      "outputs": [
        {
          "internalType": "uint256",
          "name": "counter",
          "type": "uint256"
        }
      ],
      "stateMutability": "view",
      "type": "function"
    },
    {
      "inputs": [
        {
          "internalType": "uint256",
          "name": "_projectId",
          "type": "uint256"
        }
      ],
      "name": "getProjectDetails",
      "outputs": [
        {
          "internalType": "address",
          "name": "owner",
          "type": "address"
        },
        {
          "internalType": "string",
          "name": "title",
          "type": "string"
        },
        {
          "internalType": "string",
          "name": "description",
          "type": "string"
        },
        {
          "internalType": "string",
          "name": "specificAddress",
          "type": "string"
        },
        {
          "internalType": "string",
          "name": "city",
          "type": "string"
        },
        {
          "internalType": "string",
          "name": "department",
          "type": "string"
        },
        {
          "internalType": "string",
          "name": "country",
          "type": "string"
        },
        {
          "internalType": "string",
          "name": "imageUrl",
          "type": "string"
        },
        {
          "internalType": "uint256",
          "name": "targetAmount",
          "type": "uint256"
        },
        {
          "internalType": "uint256",
          "name": "currentAmount",
          "type": "uint256"
        },
        {
          "internalType": "bool",
          "name": "isActive",
          "type": "bool"
        }
      ],
      "stateMutability": "view",
      "type": "function"
    },
    {
      "inputs": [
        {
          "internalType": "uint256",
          "name": "_projectId",
          "type": "uint256"
        }
      ],
      "name": "investInProject",
      "outputs": [],
      "stateMutability": "payable",
      "type": "function"
    },
    {
      "inputs": [],
      "name": "projectCounter",
      "outputs": [
        {
          "internalType": "uint256",
          "name": "",
          "type": "uint256"
        }
      ],
      "stateMutability": "view",
      "type": "function"
    },
    {
      "inputs": [
        {
          "internalType": "uint256",
          "name": "",
          "type": "uint256"
        }
      ],
      "name": "projects",
      "outputs": [
        {
          "internalType": "uint256",
          "name": "id",
          "type": "uint256"
        },
        {
          "internalType": "address",
          "name": "owner",
          "type": "address"
        },
        {
          "internalType": "string",
          "name": "title",
          "type": "string"
        },
        {
          "internalType": "string",
          "name": "description",
          "type": "string"
        },
        {
          "internalType": "string",
          "name": "specificAddress",
          "type": "string"
        },
        {
          "internalType": "string",
          "name": "city",
          "type": "string"
        },
        {
          "internalType": "string",
          "name": "department",
          "type": "string"
        },
        {
          "internalType": "string",
          "name": "country",
          "type": "string"
        },
        {
          "internalType": "string",
          "name": "imageUrl",
          "type": "string"
        },
        {
          "internalType": "uint256",
          "name": "targetAmount",
          "type": "uint256"
        },
        {
          "internalType": "uint256",
          "name": "currentAmount",
          "type": "uint256"
        },
        {
          "internalType": "bool",
          "name": "isActive",
          "type": "bool"
        }
      ],
      "stateMutability": "view",
      "type": "function"
    },
    {
      "inputs": [
        {
          "internalType": "uint256",
          "name": "_projectId",
          "type": "uint256"
        }
      ],
      "name": "withdrawFunds",
      "outputs": [],
      "stateMutability": "nonpayable",
      "type": "function"
    }
  ],
  "bytecode": "0x608060405234801561001057600080fd5b50612477806100206000396000f3fe6080604052600436106100865760003560e01c80635b562fd8116100595780635b562fd8146101505780635f8439e31461016c578063bb7e385a146101b3578063e2230f28146101f0578063f8a518ed1461022d57610086565b80630c527d9d1461008b578063107046bd146100b6578063155dd5ee146100fe5780634cd0cb2814610127575b600080fd5b34801561009757600080fd5b506100a0610258565b6040516100ad9190611444565b60405180910390f35b3480156100c257600080fd5b506100dd60048036038101906100d8919061149f565b610261565b6040516100f59c9b9a999897969594939291906115b8565b60405180910390f35b34801561010a57600080fd5b506101256004803603810190610120919061149f565b6106a6565b005b34801561013357600080fd5b5061014e6004803603810190610149919061149f565b6108db565b005b61016a6004803603810190610165919061149f565b610aeb565b005b34801561017857600080fd5b50610193600480360381019061018e919061149f565b610d30565b6040516101aa9b9a999897969594939291906116a3565b60405180910390f35b3480156101bf57600080fd5b506101da60048036038101906101d591906117ab565b6111af565b6040516101e79190611444565b60405180910390f35b3480156101fc57600080fd5b5061021760048036038101906102129190611920565b61120d565b6040516102249190611444565b60405180910390f35b34801561023957600080fd5b50610242611425565b60405161024f9190611444565b60405180910390f35b60008054905090565b60016020528060005260406000206000915090508060000154908060010160009054906101000a900473ffffffffffffffffffffffffffffffffffffffff16908060020180546102b090611ac9565b80601f01602080910402602001604051908101604052809291908181526020018280546102dc90611ac9565b80156103295780601f106102fe57610100808354040283529160200191610329565b820191906000526020600020905b81548152906001019060200180831161030c57829003601f168201915b50505050509080600301805461033e90611ac9565b80601f016020809104026020016040519081016040528092919081815260200182805461036a90611ac9565b80156103b75780601f1061038c576101008083540402835291602001916103b7565b820191906000526020600020905b81548152906001019060200180831161039a57829003601f168201915b5050505050908060040180546103cc90611ac9565b80601f01602080910402602001604051908101604052809291908181526020018280546103f890611ac9565b80156104455780601f1061041a57610100808354040283529160200191610445565b820191906000526020600020905b81548152906001019060200180831161042857829003601f168201915b50505050509080600501805461045a90611ac9565b80601f016020809104026020016040519081016040528092919081815260200182805461048690611ac9565b80156104d35780601f106104a8576101008083540402835291602001916104d3565b820191906000526020600020905b8154815290600101906020018083116104b657829003601f168201915b5050505050908060060180546104e890611ac9565b80601f016020809104026020016040519081016040528092919081815260200182805461051490611ac9565b80156105615780601f1061053657610100808354040283529160200191610561565b820191906000526020600020905b81548152906001019060200180831161054457829003601f168201915b50505050509080600701805461057690611ac9565b80601f01602080910402602001604051908101604052809291908181526020018280546105a290611ac9565b80156105ef5780601f106105c4576101008083540402835291602001916105ef565b820191906000526020600020905b8154815290600101906020018083116105d257829003601f168201915b50505050509080600801805461060490611ac9565b80601f016020809104026020016040519081016040528092919081815260200182805461063090611ac9565b801561067d5780601f106106525761010080835404028352916020019161067d565b820191906000526020600020905b81548152906001019060200180831161066057829003601f168201915b50505050509080600901549080600a01549080600b0160009054906101000a900460ff1690508c565b803373ffffffffffffffffffffffffffffffffffffffff166001600083815260200190815260200160002060010160009054906101000a900473ffffffffffffffffffffffffffffffffffffffff1673ffffffffffffffffffffffffffffffffffffffff161461074b576040517f08c379a000000000000000000000000000000000000000000000000000000000815260040161074290611b46565b60405180910390fd5b6000600160008481526020019081526020016000209050600081600a0154116107a9576040517f08c379a00000000000000000000000000000000000000000000000000000000081526004016107a090611bb2565b60405180910390fd5b600081600a01549050600082600a0181905550600082600b0160006101000a81548160ff02191690831515021790555060003373ffffffffffffffffffffffffffffffffffffffff16826040516107ff90611c03565b60006040518083038185875af1925050503d806000811461083c576040519150601f19603f3d011682016040523d82523d6000602084013e610841565b606091505b5050905080610885576040517f08c379a000000000000000000000000000000000000000000000000000000000815260040161087c90611c64565b60405180910390fd5b3373ffffffffffffffffffffffffffffffffffffffff16857ff440aec6b52895984d061d622e6edeba6210f7c3e059be920663140c084560d7846040516108cc9190611444565b60405180910390a35050505050565b6000811180156108ed57506000548111155b61092c576040517f08c379a000000000000000000000000000000000000000000000000000000000815260040161092390611cd0565b60405180910390fd5b3373ffffffffffffffffffffffffffffffffffffffff166001600083815260200190815260200160002060010160009054906101000a900473ffffffffffffffffffffffffffffffffffffffff1673ffffffffffffffffffffffffffffffffffffffff16146109d0576040517f08c379a00000000000000000000000000000000000000000000000000000000081526004016109c790611d3c565b60405180910390fd5b60016000828152602001908152602001600020600b0160009054906101000a900460ff16610a33576040517f08c379a0000000000000000000000000000000000000000000000000000000008152600401610a2a90611da8565b60405180910390fd5b600060016000838152602001908152602001600020600a015414610a8c576040517f08c379a0000000000000000000000000000000000000000000000000000000008152600401610a8390611e3a565b60405180910390fd5b600060016000838152602001908152602001600020600b0160006101000a81548160ff021916908315150217905550807f8c2a9a6341bba6c545de035fe1175518191d1ec50716506635b641372af17c5f60405160405180910390a250565b600081118015610afd57506000548111155b610b3c576040517f08c379a0000000000000000000000000000000000000000000000000000000008152600401610b3390611cd0565b60405180910390fd5b600060016000838152602001908152602001600020905080600b0160009054906101000a900460ff16610ba4576040517f08c379a0000000000000000000000000000000000000000000000000000000008152600401610b9b90611ea6565b60405180910390fd5b60003411610be7576040517f08c379a0000000000000000000000000000000000000000000000000000000008152600401610bde90611f38565b60405180910390fd5b80600901543482600a0154610bfc9190611f87565b1115610c3d576040517f08c379a0000000000000000000000000000000000000000000000000000000008152600401610c349061202d565b60405180910390fd5b3481600c0160003373ffffffffffffffffffffffffffffffffffffffff1673ffffffffffffffffffffffffffffffffffffffff1681526020019081526020016000206000828254610c8e9190611f87565b925050819055503481600a016000828254610ca99190611f87565b92505081905550806009015481600a015403610cdd57600081600b0160006101000a81548160ff0219169083151502179055505b3373ffffffffffffffffffffffffffffffffffffffff16827f89728d542d77fad9fe42c7d1f032c2b85f64cf938d754183b0e95359fbfac8a134604051610d249190611444565b60405180910390a35050565b60006060806060806060806060600080600080600160008e815260200190815260200160002090508060010160009054906101000a900473ffffffffffffffffffffffffffffffffffffffff1681600201826003018360040184600501856006018660070187600801886009015489600a01548a600b0160009054906101000a900460ff16898054610dc190611ac9565b80601f0160208091040260200160405190810160405280929190818152602001828054610ded90611ac9565b8015610e3a5780601f10610e0f57610100808354040283529160200191610e3a565b820191906000526020600020905b815481529060010190602001808311610e1d57829003601f168201915b50505050509950888054610e4d90611ac9565b80601f0160208091040260200160405190810160405280929190818152602001828054610e7990611ac9565b8015610ec65780601f10610e9b57610100808354040283529160200191610ec6565b820191906000526020600020905b815481529060010190602001808311610ea957829003601f168201915b50505050509850878054610ed990611ac9565b80601f0160208091040260200160405190810160405280929190818152602001828054610f0590611ac9565b8015610f525780601f10610f2757610100808354040283529160200191610f52565b820191906000526020600020905b815481529060010190602001808311610f3557829003601f168201915b50505050509750868054610f6590611ac9565b80601f0160208091040260200160405190810160405280929190818152602001828054610f9190611ac9565b8015610fde5780601f10610fb357610100808354040283529160200191610fde565b820191906000526020600020905b815481529060010190602001808311610fc157829003601f168201915b50505050509650858054610ff190611ac9565b80601f016020809104026020016040519081016040528092919081815260200182805461101d90611ac9565b801561106a5780601f1061103f5761010080835404028352916020019161106a565b820191906000526020600020905b81548152906001019060200180831161104d57829003601f168201915b5050505050955084805461107d90611ac9565b80601f01602080910402602001604051908101604052809291908181526020018280546110a990611ac9565b80156110f65780601f106110cb576101008083540402835291602001916110f6565b820191906000526020600020905b8154815290600101906020018083116110d957829003601f168201915b5050505050945083805461110990611ac9565b80601f016020809104026020016040519081016040528092919081815260200182805461113590611ac9565b80156111825780601f1061115757610100808354040283529160200191611182565b820191906000526020600020905b81548152906001019060200180831161116557829003601f168201915b505050505093509b509b509b509b509b509b509b509b509b509b509b505091939597999b90929496989a50565b600060016000848152602001908152602001600020600c0160008373ffffffffffffffffffffffffffffffffffffffff1673ffffffffffffffffffffffffffffffffffffffff16815260200190815260200160002054905092915050565b600080895111611252576040517f08c379a000000000000000000000000000000000000000000000000000000000815260040161124990612099565b60405180910390fd5b60008211611295576040517f08c379a000000000000000000000000000000000000000000000000000000000815260040161128c9061212b565b60405180910390fd5b6000808154809291906112a79061214b565b91905055506000600160008054815260200190815260200160002090506000548160000181905550338160010160006101000a81548173ffffffffffffffffffffffffffffffffffffffff021916908373ffffffffffffffffffffffffffffffffffffffff16021790555089816002019081611323919061233f565b5088816003019081611335919061233f565b5087816004019081611347919061233f565b5086816005019081611359919061233f565b508581600601908161136b919061233f565b508481600701908161137d919061233f565b508381600801908161138f919061233f565b50828160090181905550600081600a0181905550600181600b0160006101000a81548160ff0219169083151502179055503373ffffffffffffffffffffffffffffffffffffffff166000547f51d08cb6cfa640a387210fb69df925dfb70169ae7373f8ecd40b977b0c800d9a8c8660405161140b929190612411565b60405180910390a360005491505098975050505050505050565b60005481565b6000819050919050565b61143e8161142b565b82525050565b60006020820190506114596000830184611435565b92915050565b6000604051905090565b600080fd5b600080fd5b61147c8161142b565b811461148757600080fd5b50565b60008135905061149981611473565b92915050565b6000602082840312156114b5576114b4611469565b5b60006114c38482850161148a565b91505092915050565b600073ffffffffffffffffffffffffffffffffffffffff82169050919050565b60006114f7826114cc565b9050919050565b611507816114ec565b82525050565b600081519050919050565b600082825260208201905092915050565b60005b8381101561154757808201518184015260208101905061152c565b60008484015250505050565b6000601f19601f8301169050919050565b600061156f8261150d565b6115798185611518565b9350611589818560208601611529565b61159281611553565b840191505092915050565b60008115159050919050565b6115b28161159d565b82525050565b6000610180820190506115ce600083018f611435565b6115db602083018e6114fe565b81810360408301526115ed818d611564565b90508181036060830152611601818c611564565b90508181036080830152611615818b611564565b905081810360a0830152611629818a611564565b905081810360c083015261163d8189611564565b905081810360e08301526116518188611564565b90508181036101008301526116668187611564565b9050611676610120830186611435565b611684610140830185611435565b6116926101608301846115a9565b9d9c50505050505050505050505050565b6000610160820190506116b9600083018e6114fe565b81810360208301526116cb818d611564565b905081810360408301526116df818c611564565b905081810360608301526116f3818b611564565b90508181036080830152611707818a611564565b905081810360a083015261171b8189611564565b905081810360c083015261172f8188611564565b905081810360e08301526117438187611564565b9050611753610100830186611435565b611761610120830185611435565b61176f6101408301846115a9565b9c9b505050505050505050505050565b611788816114ec565b811461179357600080fd5b50565b6000813590506117a58161177f565b92915050565b600080604083850312156117c2576117c1611469565b5b60006117d08582860161148a565b92505060206117e185828601611796565b9150509250929050565b600080fd5b600080fd5b7f4e487b7100000000000000000000000000000000000000000000000000000000600052604160045260246000fd5b61182d82611553565b810181811067ffffffffffffffff8211171561184c5761184b6117f5565b5b80604052505050565b600061185f61145f565b905061186b8282611824565b919050565b600067ffffffffffffffff82111561188b5761188a6117f5565b5b61189482611553565b9050602081019050919050565b82818337600083830152505050565b60006118c36118be84611870565b611855565b9050828152602081018484840111156118df576118de6117f0565b5b6118ea8482856118a1565b509392505050565b600082601f830112611907576119066117eb565b5b81356119178482602086016118b0565b91505092915050565b600080600080600080600080610100898b03121561194157611940611469565b5b600089013567ffffffffffffffff81111561195f5761195e61146e565b5b61196b8b828c016118f2565b985050602089013567ffffffffffffffff81111561198c5761198b61146e565b5b6119988b828c016118f2565b975050604089013567ffffffffffffffff8111156119b9576119b861146e565b5b6119c58b828c016118f2565b965050606089013567ffffffffffffffff8111156119e6576119e561146e565b5b6119f28b828c016118f2565b955050608089013567ffffffffffffffff811115611a1357611a1261146e565b5b611a1f8b828c016118f2565b94505060a089013567ffffffffffffffff811115611a4057611a3f61146e565b5b611a4c8b828c016118f2565b93505060c089013567ffffffffffffffff811115611a6d57611a6c61146e565b5b611a798b828c016118f2565b92505060e0611a8a8b828c0161148a565b9150509295985092959890939650565b7f4e487b7100000000000000000000000000000000000000000000000000000000600052602260045260246000fd5b60006002820490506001821680611ae157607f821691505b602082108103611af457611af3611a9a565b5b50919050565b7f4e6f74207468652070726f6a656374206f776e65720000000000000000000000600082015250565b6000611b30601583611518565b9150611b3b82611afa565b602082019050919050565b60006020820190508181036000830152611b5f81611b23565b9050919050565b7f4e6f2066756e647320746f207769746864726177000000000000000000000000600082015250565b6000611b9c601483611518565b9150611ba782611b66565b602082019050919050565b60006020820190508181036000830152611bcb81611b8f565b9050919050565b600081905092915050565b50565b6000611bed600083611bd2565b9150611bf882611bdd565b600082019050919050565b6000611c0e82611be0565b9150819050919050565b7f5472616e73666572206661696c65640000000000000000000000000000000000600082015250565b6000611c4e600f83611518565b9150611c5982611c18565b602082019050919050565b60006020820190508181036000830152611c7d81611c41565b9050919050565b7f496e76616c69642070726f6a6563742049440000000000000000000000000000600082015250565b6000611cba601283611518565b9150611cc582611c84565b602082019050919050565b60006020820190508181036000830152611ce981611cad565b9050919050565b7f4f6e6c79206f776e65722063616e2064656c6574652070726f6a656374000000600082015250565b6000611d26601d83611518565b9150611d3182611cf0565b602082019050919050565b60006020820190508181036000830152611d5581611d19565b9050919050565b7f50726f6a65637420697320616c726561647920696e6163746976650000000000600082015250565b6000611d92601b83611518565b9150611d9d82611d5c565b602082019050919050565b60006020820190508181036000830152611dc181611d85565b9050919050565b7f43616e6e6f742064656c6574652070726f6a656374207769746820696e76657360008201527f746d656e74730000000000000000000000000000000000000000000000000000602082015250565b6000611e24602683611518565b9150611e2f82611dc8565b604082019050919050565b60006020820190508181036000830152611e5381611e17565b9050919050565b7f50726f6a656374206973206e6f74206163746976650000000000000000000000600082015250565b6000611e90601583611518565b9150611e9b82611e5a565b602082019050919050565b60006020820190508181036000830152611ebf81611e83565b9050919050565b7f496e766573746d656e7420616d6f756e74206d7573742062652067726561746560008201527f72207468616e2030000000000000000000000000000000000000000000000000602082015250565b6000611f22602883611518565b9150611f2d82611ec6565b604082019050919050565b60006020820190508181036000830152611f5181611f15565b9050919050565b7f4e487b7100000000000000000000000000000000000000000000000000000000600052601160045260246000fd5b6000611f928261142b565b9150611f9d8361142b565b9250828201905080821115611fb557611fb4611f58565b5b92915050565b7f496e766573746d656e7420776f756c642065786365656420746172676574206160008201527f6d6f756e74000000000000000000000000000000000000000000000000000000602082015250565b6000612017602583611518565b915061202282611fbb565b604082019050919050565b600060208201905081810360008301526120468161200a565b9050919050565b7f5469746c652063616e6e6f7420626520656d7074790000000000000000000000600082015250565b6000612083601583611518565b915061208e8261204d565b602082019050919050565b600060208201905081810360008301526120b281612076565b9050919050565b7f54617267657420616d6f756e74206d757374206265206772656174657220746860008201527f616e203000000000000000000000000000000000000000000000000000000000602082015250565b6000612115602483611518565b9150612120826120b9565b604082019050919050565b6000602082019050818103600083015261214481612108565b9050919050565b60006121568261142b565b91507fffffffffffffffffffffffffffffffffffffffffffffffffffffffffffffffff820361218857612187611f58565b5b600182019050919050565b60008190508160005260206000209050919050565b60006020601f8301049050919050565b600082821b905092915050565b6000600883026121f57fffffffffffffffffffffffffffffffffffffffffffffffffffffffffffffffff826121b8565b6121ff86836121b8565b95508019841693508086168417925050509392505050565b6000819050919050565b600061223c6122376122328461142b565b612217565b61142b565b9050919050565b6000819050919050565b61225683612221565b61226a61226282612243565b8484546121c5565b825550505050565b600090565b61227f612272565b61228a81848461224d565b505050565b5b818110156122ae576122a3600082612277565b600181019050612290565b5050565b601f8211156122f3576122c481612193565b6122cd846121a8565b810160208510156122dc578190505b6122f06122e8856121a8565b83018261228f565b50505b505050565b600082821c905092915050565b6000612316600019846008026122f8565b1980831691505092915050565b600061232f8383612305565b9150826002028217905092915050565b6123488261150d565b67ffffffffffffffff811115612361576123606117f5565b5b61236b8254611ac9565b6123768282856122b2565b600060209050601f8311600181146123a95760008415612397578287015190505b6123a18582612323565b865550612409565b601f1984166123b786612193565b60005b828110156123df578489015182556001820191506020850194506020810190506123ba565b868310156123fc57848901516123f8601f891682612305565b8355505b6001600288020188555050505b505050505050565b6000604082019050818103600083015261242b8185611564565b905061243a6020830184611435565b939250505056fea2646970667358221220be3937547ff577bf2cd3f8b433e953b9f2c8ba019a19e2b63827a50f978a722864736f6c63430008130033",
  "linkReferences": {},
  "deployedLinkReferences": {}
}